{
  "contractName": "AuthorizedBuyer",
  "abi": [
    {
      "constant": false,
      "inputs": [
        {
          "name": "_newController",
          "type": "address"
        }
      ],
      "name": "transferControl",
      "outputs": [],
      "payable": false,
      "stateMutability": "nonpayable",
      "type": "function"
    },
    {
      "constant": true,
      "inputs": [],
      "name": "controller",
      "outputs": [
        {
          "name": "",
          "type": "address"
        }
      ],
      "payable": false,
      "stateMutability": "view",
      "type": "function"
    },
    {
      "anonymous": false,
      "inputs": [
        {
          "indexed": true,
          "name": "previousController",
          "type": "address"
        },
        {
          "indexed": true,
          "name": "newController",
          "type": "address"
        }
      ],
      "name": "ControlTransferred",
      "type": "event"
    },
    {
      "constant": true,
      "inputs": [
        {
          "name": "_add",
          "type": "address"
        },
        {
          "name": "_v",
          "type": "uint8"
        },
        {
          "name": "_r",
          "type": "bytes32"
        },
        {
          "name": "_s",
          "type": "bytes32"
        }
      ],
      "name": "isValidAccessMessage",
      "outputs": [
        {
          "name": "",
          "type": "bool"
        }
      ],
      "payable": false,
      "stateMutability": "view",
      "type": "function"
    }
  ],
  "bytecode": "0x6080604052336000806101000a81548173ffffffffffffffffffffffffffffffffffffffff021916908373ffffffffffffffffffffffffffffffffffffffff1602179055506105b1806100536000396000f300608060405260043610610057576000357c0100000000000000000000000000000000000000000000000000000000900463ffffffff168063326241141461005c5780636d16fa41146100e0578063f77c479114610123575b600080fd5b34801561006857600080fd5b506100c6600480360381019080803573ffffffffffffffffffffffffffffffffffffffff169060200190929190803560ff1690602001909291908035600019169060200190929190803560001916906020019092919050505061017a565b604051808215151515815260200191505060405180910390f35b3480156100ec57600080fd5b50610121600480360381019080803573ffffffffffffffffffffffffffffffffffffffff16906020019092919050505061040b565b005b34801561012f57600080fd5b50610138610560565b604051808273ffffffffffffffffffffffffffffffffffffffff1673ffffffffffffffffffffffffffffffffffffffff16815260200191505060405180910390f35b6000803086604051602001808373ffffffffffffffffffffffffffffffffffffffff1673ffffffffffffffffffffffffffffffffffffffff166c010000000000000000000000000281526014018273ffffffffffffffffffffffffffffffffffffffff1673ffffffffffffffffffffffffffffffffffffffff166c01000000000000000000000000028152601401925050506040516020818303038152906040526040518082805190602001908083835b602083101515610250578051825260208201915060208101905060208303925061022b565b6001836020036101000a0380198251168184511680821785525050505050509050019150506040518091039020905060018160405160200180807f19457468657265756d205369676e6564204d6573736167653a0a333200000000815250601c0182600019166000191681526020019150506040516020818303038152906040526040518082805190602001908083835b60208310151561030657805182526020820191506020810190506020830392506102e1565b6001836020036101000a0380198251168184511680821785525050505050509050019150506040518091039020868686604051600081526020016040526040518085600019166000191681526020018460ff1660ff1681526020018360001916600019168152602001826000191660001916815260200194505050505060206040516020810390808403906000865af11580156103a7573d6000803e3d6000fd5b5050506020604051035173ffffffffffffffffffffffffffffffffffffffff166000809054906101000a900473ffffffffffffffffffffffffffffffffffffffff1673ffffffffffffffffffffffffffffffffffffffff1614915050949350505050565b6000809054906101000a900473ffffffffffffffffffffffffffffffffffffffff1673ffffffffffffffffffffffffffffffffffffffff163373ffffffffffffffffffffffffffffffffffffffff1614151561046657600080fd5b600073ffffffffffffffffffffffffffffffffffffffff168173ffffffffffffffffffffffffffffffffffffffff16141515156104a257600080fd5b8073ffffffffffffffffffffffffffffffffffffffff166000809054906101000a900473ffffffffffffffffffffffffffffffffffffffff1673ffffffffffffffffffffffffffffffffffffffff167fa06677f7b64342b4bcbde423684dbdb5356acfe41ad0285b6ecbe6dc4bf427f260405160405180910390a3806000806101000a81548173ffffffffffffffffffffffffffffffffffffffff021916908373ffffffffffffffffffffffffffffffffffffffff16021790555050565b6000809054906101000a900473ffffffffffffffffffffffffffffffffffffffff16815600a165627a7a72305820b668298a0c4fb0ff59a82232763b735bc867f2e38a58af8439ce7127bf970c460029",
  "source": "pragma solidity ^0.4.24;\n\nimport \"./Controllable.sol\";\n\n/// @title AuthorizeBuyer\n/// @author James Kennedy - hat-tip to Philippe Castonguay for base code\n/// @notice Ensure a buyer has cleared KYC/AML checks, as necessary\n/// @dev Leverages ECDSA signature parameters and prevent reuse of message on other contract with same owner\ncontract AuthorizedBuyer is Controllable {\n    /// @dev Message must originate with a validated sender\n    /// @param _v ECDSA signature parameter v\n    /// @param _r ECDSA signature parameters r\n    /// @param _s ECDSA signature parameters s\n    modifier onlyValidAccess(uint8 _v, bytes32 _r, bytes32 _s) {\n        require( isValidAccessMessage(msg.sender,_v,_r,_s) );\n        _;\n    }\n\n    /// @dev Verifies if message was signed by owner to give access to _add for this contract\n    /// Assumes Geth signature prefix\n    /// @param _add Address of sender\n    /// @param _v ECDSA signature parameter v\n    /// @param _r ECDSA signature parameters r\n    /// @param _s ECDSA signature parameters s\n    /// @return Boolean check on validity of access message\n    function isValidAccessMessage(address _add, uint8 _v, bytes32 _r, bytes32 _s) view public returns (bool) {\n        bytes32 hash = keccak256(abi.encodePacked(this, _add));\n        return controller == ecrecover(keccak256(abi.encodePacked(\"\\x19Ethereum Signed Message:\\n32\", hash)), _v, _r, _s);\n    }\n}\n\n",
  "sourcePath": "/Users/mbpJames/WebstormProjects/IcoTest2/contracts/AuthorizedBuyer.sol",
  "compiler": {
    "name": "solc",
    "version": "0.4.24+commit.e67f0147.Emscripten.clang"
  },
  "schemaVersion": "2.0.0",
  "updatedAt": "2018-06-24T13:48:05.393Z"
}