{
  "contractName": "Escrow",
  "abi": [
    {
      "constant": true,
      "inputs": [],
      "name": "wallet",
      "outputs": [
        {
          "name": "",
          "type": "address"
        }
      ],
      "payable": false,
      "stateMutability": "view",
      "type": "function"
    },
    {
      "constant": false,
      "inputs": [
        {
          "name": "_newController",
          "type": "address"
        }
      ],
      "name": "transferControl",
      "outputs": [],
      "payable": false,
      "stateMutability": "nonpayable",
      "type": "function"
    },
    {
      "constant": true,
      "inputs": [],
      "name": "phase",
      "outputs": [
        {
          "name": "",
          "type": "uint8"
        }
      ],
      "payable": false,
      "stateMutability": "view",
      "type": "function"
    },
    {
      "constant": true,
      "inputs": [],
      "name": "state",
      "outputs": [
        {
          "name": "",
          "type": "uint8"
        }
      ],
      "payable": false,
      "stateMutability": "view",
      "type": "function"
    },
    {
      "constant": true,
      "inputs": [
        {
          "name": "",
          "type": "address"
        }
      ],
      "name": "deposited",
      "outputs": [
        {
          "name": "",
          "type": "uint256"
        }
      ],
      "payable": false,
      "stateMutability": "view",
      "type": "function"
    },
    {
      "constant": true,
      "inputs": [],
      "name": "controller",
      "outputs": [
        {
          "name": "",
          "type": "address"
        }
      ],
      "payable": false,
      "stateMutability": "view",
      "type": "function"
    },
    {
      "inputs": [
        {
          "name": "_wallet",
          "type": "address"
        }
      ],
      "payable": false,
      "stateMutability": "nonpayable",
      "type": "constructor"
    },
    {
      "anonymous": false,
      "inputs": [],
      "name": "Closed",
      "type": "event"
    },
    {
      "anonymous": false,
      "inputs": [],
      "name": "RefundsEnabled",
      "type": "event"
    },
    {
      "anonymous": false,
      "inputs": [
        {
          "indexed": true,
          "name": "investor",
          "type": "address"
        },
        {
          "indexed": false,
          "name": "weiAmount",
          "type": "uint256"
        }
      ],
      "name": "Refunded",
      "type": "event"
    },
    {
      "anonymous": false,
      "inputs": [],
      "name": "Reopened",
      "type": "event"
    },
    {
      "anonymous": false,
      "inputs": [
        {
          "indexed": true,
          "name": "previousController",
          "type": "address"
        },
        {
          "indexed": true,
          "name": "newController",
          "type": "address"
        }
      ],
      "name": "ControlTransferred",
      "type": "event"
    },
    {
      "constant": false,
      "inputs": [
        {
          "name": "investor",
          "type": "address"
        }
      ],
      "name": "deposit",
      "outputs": [],
      "payable": true,
      "stateMutability": "payable",
      "type": "function"
    },
    {
      "constant": false,
      "inputs": [],
      "name": "close",
      "outputs": [],
      "payable": false,
      "stateMutability": "nonpayable",
      "type": "function"
    },
    {
      "constant": false,
      "inputs": [],
      "name": "enableRefunds",
      "outputs": [],
      "payable": false,
      "stateMutability": "nonpayable",
      "type": "function"
    },
    {
      "constant": false,
      "inputs": [
        {
          "name": "investor",
          "type": "address"
        }
      ],
      "name": "refund",
      "outputs": [],
      "payable": false,
      "stateMutability": "nonpayable",
      "type": "function"
    }
  ],
  "bytecode": "0x608060405234801561001057600080fd5b50604051602080610bda83398101806040528101908080519060200190929190505050336000806101000a81548173ffffffffffffffffffffffffffffffffffffffff021916908373ffffffffffffffffffffffffffffffffffffffff160217905550600073ffffffffffffffffffffffffffffffffffffffff168173ffffffffffffffffffffffffffffffffffffffff16141515156100af57600080fd5b80600160006101000a81548173ffffffffffffffffffffffffffffffffffffffff021916908373ffffffffffffffffffffffffffffffffffffffff1602179055506000600360016101000a81548160ff0219169083600281111561010f57fe5b02179055506000600360006101000a81548160ff0219169083600181111561013357fe5b021790555050610a92806101486000396000f3006080604052600436106100a4576000357c0100000000000000000000000000000000000000000000000000000000900463ffffffff16806343d726d6146100a9578063521eb273146100c05780636d16fa41146101175780638c52dc411461015a578063b1c9fe6e14610171578063c19d93fb146101aa578063cb13cddb146101e3578063f340fa011461023a578063f77c479114610270578063fa89401a146102c7575b600080fd5b3480156100b557600080fd5b506100be61030a565b005b3480156100cc57600080fd5b506100d561050e565b604051808273ffffffffffffffffffffffffffffffffffffffff1673ffffffffffffffffffffffffffffffffffffffff16815260200191505060405180910390f35b34801561012357600080fd5b50610158600480360381019080803573ffffffffffffffffffffffffffffffffffffffff169060200190929190505050610534565b005b34801561016657600080fd5b5061016f610689565b005b34801561017d57600080fd5b5061018661076a565b6040518082600181111561019657fe5b60ff16815260200191505060405180910390f35b3480156101b657600080fd5b506101bf61077d565b604051808260028111156101cf57fe5b60ff16815260200191505060405180910390f35b3480156101ef57600080fd5b50610224600480360381019080803573ffffffffffffffffffffffffffffffffffffffff169060200190929190505050610790565b6040518082815260200191505060405180910390f35b61026e600480360381019080803573ffffffffffffffffffffffffffffffffffffffff1690602001909291905050506107a8565b005b34801561027c57600080fd5b506102856108cf565b604051808273ffffffffffffffffffffffffffffffffffffffff1673ffffffffffffffffffffffffffffffffffffffff16815260200191505060405180910390f35b3480156102d357600080fd5b50610308600480360381019080803573ffffffffffffffffffffffffffffffffffffffff1690602001909291905050506108f4565b005b6000809054906101000a900473ffffffffffffffffffffffffffffffffffffffff1673ffffffffffffffffffffffffffffffffffffffff163373ffffffffffffffffffffffffffffffffffffffff1614151561036557600080fd5b6000600281111561037257fe5b600360019054906101000a900460ff16600281111561038d57fe5b14151561039957600080fd5b6002600360016101000a81548160ff021916908360028111156103b857fe5b02179055507f1cdde67b72a90f19919ac732a437ac2f7a10fc128d28c2a6e525d89ce5cd9d3a60405160405180910390a1600160009054906101000a900473ffffffffffffffffffffffffffffffffffffffff1673ffffffffffffffffffffffffffffffffffffffff166108fc3073ffffffffffffffffffffffffffffffffffffffff16319081150290604051600060405180830381858888f19350505050158015610468573d6000803e3d6000fd5b506000600181111561047657fe5b600360009054906101000a900460ff16600181111561049157fe5b141561050c576001600360006101000a81548160ff021916908360018111156104b657fe5b02179055506000600360016101000a81548160ff021916908360028111156104da57fe5b02179055507ff7114b62990cd56d97332567a1010876c626c57028dfa9adb53206628a7ecf9060405160405180910390a15b565b600160009054906101000a900473ffffffffffffffffffffffffffffffffffffffff1681565b6000809054906101000a900473ffffffffffffffffffffffffffffffffffffffff1673ffffffffffffffffffffffffffffffffffffffff163373ffffffffffffffffffffffffffffffffffffffff1614151561058f57600080fd5b600073ffffffffffffffffffffffffffffffffffffffff168173ffffffffffffffffffffffffffffffffffffffff16141515156105cb57600080fd5b8073ffffffffffffffffffffffffffffffffffffffff166000809054906101000a900473ffffffffffffffffffffffffffffffffffffffff1673ffffffffffffffffffffffffffffffffffffffff167fa06677f7b64342b4bcbde423684dbdb5356acfe41ad0285b6ecbe6dc4bf427f260405160405180910390a3806000806101000a81548173ffffffffffffffffffffffffffffffffffffffff021916908373ffffffffffffffffffffffffffffffffffffffff16021790555050565b6000809054906101000a900473ffffffffffffffffffffffffffffffffffffffff1673ffffffffffffffffffffffffffffffffffffffff163373ffffffffffffffffffffffffffffffffffffffff161415156106e457600080fd5b600060028111156106f157fe5b600360019054906101000a900460ff16600281111561070c57fe5b14151561071857600080fd5b6001600360016101000a81548160ff0219169083600281111561073757fe5b02179055507f599d8e5a83cffb867d051598c4d70e805d59802d8081c1c7d6dffc5b6aca2b8960405160405180910390a1565b600360009054906101000a900460ff1681565b600360019054906101000a900460ff1681565b60026020528060005260406000206000915090505481565b6000809054906101000a900473ffffffffffffffffffffffffffffffffffffffff1673ffffffffffffffffffffffffffffffffffffffff163373ffffffffffffffffffffffffffffffffffffffff1614151561080357600080fd5b6000600281111561081057fe5b600360019054906101000a900460ff16600281111561082b57fe5b14151561083757600080fd5b61088934600260008473ffffffffffffffffffffffffffffffffffffffff1673ffffffffffffffffffffffffffffffffffffffff16815260200190815260200160002054610a4a90919063ffffffff16565b600260008373ffffffffffffffffffffffffffffffffffffffff1673ffffffffffffffffffffffffffffffffffffffff1681526020019081526020016000208190555050565b6000809054906101000a900473ffffffffffffffffffffffffffffffffffffffff1681565b60006001600281111561090357fe5b600360019054906101000a900460ff16600281111561091e57fe5b14151561092a57600080fd5b600260008373ffffffffffffffffffffffffffffffffffffffff1673ffffffffffffffffffffffffffffffffffffffff1681526020019081526020016000205490506000600260008473ffffffffffffffffffffffffffffffffffffffff1673ffffffffffffffffffffffffffffffffffffffff168152602001908152602001600020819055508173ffffffffffffffffffffffffffffffffffffffff166108fc829081150290604051600060405180830381858888f193505050501580156109f7573d6000803e3d6000fd5b508173ffffffffffffffffffffffffffffffffffffffff167fd7dee2702d63ad89917b6a4da9981c90c4d24f8c2bdfd64c604ecae57d8d0651826040518082815260200191505060405180910390a25050565b60008183019050828110151515610a5d57fe5b809050929150505600a165627a7a72305820d8749c816a0105f75af1f6e21c876d0e9c44431e0442e114b04377f390266a7e0029",
  "source": "pragma solidity ^0.4.24;\n\nimport \"./UintMath.sol\";\nimport \"./Controllable.sol\";\n\n/// @title BlocStay Network Escrow\n/// @author James Kennedy - hat-tip to Open-Zeppelin for base code\n/// @notice Stores ETH in escrow pending reaching a release trigger\n/// @dev Refund issued if escrow conditions not reached and released otherwise\ncontract Escrow is Controllable {\n    using UintMath for uint256;\n\n    enum Phase { PreIco, Ico}\n    enum State { Active, Refunding, Closed }\n\n    address public wallet;\n    mapping (address => uint256) public deposited;\n    Phase public phase;\n    State public state;\n\n    event Closed();\n    event RefundsEnabled();\n    event Refunded(address indexed investor, uint256 weiAmount);\n    event Reopened();\n\n    /// @param _wallet Token target address\n    constructor(address _wallet) public {\n        require(_wallet != address(0));\n        wallet = _wallet;\n        state = State.Active;\n        phase = Phase.PreIco;\n    }\n\n    /// @param investor Investor address\n    function deposit(address investor) onlyController public payable {\n        require(state == State.Active);\n        deposited[investor] = deposited[investor].plus(msg.value);\n    }\n\n    function close() onlyController public {\n        require(state == State.Active);\n        state = State.Closed;\n        emit Closed();\n        wallet.transfer(address(this).balance);\n        if(phase == Phase.PreIco) {\n            phase = Phase.Ico;\n            state = State.Active;\n            emit Reopened();\n        }\n    }\n\n    function enableRefunds() onlyController public {\n        require(state == State.Active);\n        state = State.Refunding;\n        emit RefundsEnabled();\n    }\n\n    /// @param investor Investor address\n    function refund(address investor) public {\n        require(state == State.Refunding);\n        uint256 depositedValue = deposited[investor];\n        deposited[investor] = 0;\n        investor.transfer(depositedValue);\n        emit Refunded(investor, depositedValue);\n    }\n}\n",
  "sourcePath": "/Users/mbpJames/WebstormProjects/IcoTest2/contracts/Escrow.sol",
  "compiler": {
    "name": "solc",
    "version": "0.4.24+commit.e67f0147.Emscripten.clang"
  },
  "schemaVersion": "2.0.0",
  "updatedAt": "2018-06-24T13:48:05.399Z"
}