{
  "contractName": "InnLockupGenerator",
  "abi": [
    {
      "payable": false,
      "stateMutability": "nonpayable",
      "type": "fallback"
    },
    {
      "anonymous": false,
      "inputs": [
        {
          "indexed": false,
          "name": "innRecipient",
          "type": "address"
        },
        {
          "indexed": false,
          "name": "from",
          "type": "address"
        },
        {
          "indexed": false,
          "name": "to",
          "type": "address"
        },
        {
          "indexed": false,
          "name": "createdAt",
          "type": "uint256"
        },
        {
          "indexed": false,
          "name": "unlockDate",
          "type": "uint256"
        },
        {
          "indexed": false,
          "name": "amount",
          "type": "uint256"
        }
      ],
      "name": "Created",
      "type": "event"
    },
    {
      "constant": true,
      "inputs": [
        {
          "name": "_user",
          "type": "address"
        }
      ],
      "name": "getWallets",
      "outputs": [
        {
          "name": "",
          "type": "address[]"
        }
      ],
      "payable": false,
      "stateMutability": "view",
      "type": "function"
    },
    {
      "constant": false,
      "inputs": [
        {
          "name": "_owner",
          "type": "address"
        },
        {
          "name": "_unlockDate",
          "type": "uint256"
        }
      ],
      "name": "generateInnLockup",
      "outputs": [
        {
          "name": "innRecipient",
          "type": "address"
        }
      ],
      "payable": true,
      "stateMutability": "payable",
      "type": "function"
    }
  ],
  "bytecode": "0x608060405234801561001057600080fd5b50610f67806100206000396000f30060806040526004361061004c576000357c0100000000000000000000000000000000000000000000000000000000900463ffffffff168063422c29a41461005e578063dafa8b17146100f6575b34801561005857600080fd5b50600080fd5b34801561006a57600080fd5b5061009f600480360381019080803573ffffffffffffffffffffffffffffffffffffffff169060200190929190505050610176565b6040518080602001828103825283818151815260200191508051906020019060200280838360005b838110156100e25780820151818401526020810190506100c7565b505050509050019250505060405180910390f35b610134600480360381019080803573ffffffffffffffffffffffffffffffffffffffff16906020019092919080359060200190929190505050610242565b604051808273ffffffffffffffffffffffffffffffffffffffff1673ffffffffffffffffffffffffffffffffffffffff16815260200191505060405180910390f35b60606000808373ffffffffffffffffffffffffffffffffffffffff1673ffffffffffffffffffffffffffffffffffffffff16815260200190815260200160002080548060200260200160405190810160405280929190818152602001828054801561023657602002820191906000526020600020905b8160009054906101000a900473ffffffffffffffffffffffffffffffffffffffff1673ffffffffffffffffffffffffffffffffffffffff16815260200190600101908083116101ec575b50505050509050919050565b600033838361024f610588565b808473ffffffffffffffffffffffffffffffffffffffff1673ffffffffffffffffffffffffffffffffffffffff1681526020018373ffffffffffffffffffffffffffffffffffffffff1673ffffffffffffffffffffffffffffffffffffffff1681526020018281526020019350505050604051809103906000f0801580156102db573d6000803e3d6000fd5b5090506000803373ffffffffffffffffffffffffffffffffffffffff1673ffffffffffffffffffffffffffffffffffffffff1681526020019081526020016000208190806001815401808255809150509060018203906000526020600020016000909192909190916101000a81548173ffffffffffffffffffffffffffffffffffffffff021916908373ffffffffffffffffffffffffffffffffffffffff160217905550508273ffffffffffffffffffffffffffffffffffffffff163373ffffffffffffffffffffffffffffffffffffffff16141515610458576000808473ffffffffffffffffffffffffffffffffffffffff1673ffffffffffffffffffffffffffffffffffffffff1681526020019081526020016000208190806001815401808255809150509060018203906000526020600020016000909192909190916101000a81548173ffffffffffffffffffffffffffffffffffffffff021916908373ffffffffffffffffffffffffffffffffffffffff160217905550505b8073ffffffffffffffffffffffffffffffffffffffff166108fc349081150290604051600060405180830381858888f1935050505015801561049e573d6000803e3d6000fd5b507f14d5db8c1f746c7adcbcd13cf8945dd2ac6ad58be52380b8c4933c876f76e1bf813385428634604051808773ffffffffffffffffffffffffffffffffffffffff1673ffffffffffffffffffffffffffffffffffffffff1681526020018673ffffffffffffffffffffffffffffffffffffffff1673ffffffffffffffffffffffffffffffffffffffff1681526020018573ffffffffffffffffffffffffffffffffffffffff1673ffffffffffffffffffffffffffffffffffffffff168152602001848152602001838152602001828152602001965050505050505060405180910390a192915050565b6040516109a380610599833901905600608060405234801561001057600080fd5b506040516060806109a3833981018060405281019080805190602001909291908051906020019092919080519060200190929190505050428111151561005557600080fd5b82600160006101000a81548173ffffffffffffffffffffffffffffffffffffffff021916908373ffffffffffffffffffffffffffffffffffffffff160217905550816000806101000a81548173ffffffffffffffffffffffffffffffffffffffff021916908373ffffffffffffffffffffffffffffffffffffffff16021790555080600481905550426003819055507f88a5966d370b9919b20f3e2c13ff65706f196a4e32cc2c12bf57088f885258748282604051808373ffffffffffffffffffffffffffffffffffffffff1673ffffffffffffffffffffffffffffffffffffffff1681526020018281526020019250505060405180910390a1505050610842806101616000396000f300608060405260043610610083576000357c0100000000000000000000000000000000000000000000000000000000900463ffffffff1680631030978114610088578063370158ea146100b35780633c815d9e146101525780637952ecd9146101a957806386d1a69f14610200578063aa082a9d14610217578063eb6e0f2914610242575b600080fd5b34801561009457600080fd5b5061009d610285565b6040518082815260200191505060405180910390f35b3480156100bf57600080fd5b506100c861028b565b604051808673ffffffffffffffffffffffffffffffffffffffff1673ffffffffffffffffffffffffffffffffffffffff1681526020018573ffffffffffffffffffffffffffffffffffffffff1673ffffffffffffffffffffffffffffffffffffffff1681526020018481526020018381526020018281526020019550505050505060405180910390f35b34801561015e57600080fd5b50610167610307565b604051808273ffffffffffffffffffffffffffffffffffffffff1673ffffffffffffffffffffffffffffffffffffffff16815260200191505060405180910390f35b3480156101b557600080fd5b506101be61032d565b604051808273ffffffffffffffffffffffffffffffffffffffff1673ffffffffffffffffffffffffffffffffffffffff16815260200191505060405180910390f35b34801561020c57600080fd5b50610215610352565b005b34801561022357600080fd5b5061022c610468565b6040518082815260200191505060405180910390f35b34801561024e57600080fd5b50610283600480360381019080803573ffffffffffffffffffffffffffffffffffffffff16906020019092919050505061046e565b005b60035481565b6000806000806000600160009054906101000a900473ffffffffffffffffffffffffffffffffffffffff166000809054906101000a900473ffffffffffffffffffffffffffffffffffffffff166004546003543073ffffffffffffffffffffffffffffffffffffffff1631945094509450945094509091929394565b600160009054906101000a900473ffffffffffffffffffffffffffffffffffffffff1681565b6000809054906101000a900473ffffffffffffffffffffffffffffffffffffffff1681565b6000809054906101000a900473ffffffffffffffffffffffffffffffffffffffff1673ffffffffffffffffffffffffffffffffffffffff163373ffffffffffffffffffffffffffffffffffffffff161415156103ad57600080fd5b60045442101515156103be57600080fd5b60003073ffffffffffffffffffffffffffffffffffffffff16311115156103e457600080fd5b7fb244b9a17ad633c6e83b7983ee04320484956a68ddbe96a0b70dfca1cf19d723333073ffffffffffffffffffffffffffffffffffffffff1631604051808373ffffffffffffffffffffffffffffffffffffffff1673ffffffffffffffffffffffffffffffffffffffff1681526020018281526020019250505060405180910390a1565b60045481565b60008060009054906101000a900473ffffffffffffffffffffffffffffffffffffffff1673ffffffffffffffffffffffffffffffffffffffff163373ffffffffffffffffffffffffffffffffffffffff161415156104cb57600080fd5b60045442101515156104dc57600080fd5b81600260006101000a81548173ffffffffffffffffffffffffffffffffffffffff021916908373ffffffffffffffffffffffffffffffffffffffff160217905550600260009054906101000a900473ffffffffffffffffffffffffffffffffffffffff1673ffffffffffffffffffffffffffffffffffffffff166370a08231306040518263ffffffff167c0100000000000000000000000000000000000000000000000000000000028152600401808273ffffffffffffffffffffffffffffffffffffffff1673ffffffffffffffffffffffffffffffffffffffff168152602001915050602060405180830381600087803b1580156105da57600080fd5b505af11580156105ee573d6000803e3d6000fd5b505050506040513d602081101561060457600080fd5b810190808051906020019092919050505090506106856000809054906101000a900473ffffffffffffffffffffffffffffffffffffffff1682600260009054906101000a900473ffffffffffffffffffffffffffffffffffffffff1673ffffffffffffffffffffffffffffffffffffffff166107289092919063ffffffff16565b7fa04c965e7d289704527a948915777d68bb4530fb4b08aa935fb958c0b7901ab9823383604051808473ffffffffffffffffffffffffffffffffffffffff1673ffffffffffffffffffffffffffffffffffffffff1681526020018373ffffffffffffffffffffffffffffffffffffffff1673ffffffffffffffffffffffffffffffffffffffff168152602001828152602001935050505060405180910390a15050565b8273ffffffffffffffffffffffffffffffffffffffff1663a9059cbb83836040518363ffffffff167c0100000000000000000000000000000000000000000000000000000000028152600401808373ffffffffffffffffffffffffffffffffffffffff1673ffffffffffffffffffffffffffffffffffffffff16815260200182815260200192505050602060405180830381600087803b1580156107cb57600080fd5b505af11580156107df573d6000803e3d6000fd5b505050506040513d60208110156107f557600080fd5b8101908080519060200190929190505050151561081157600080fd5b5050505600a165627a7a7230582017a18a496e11f1bd088a0a66fb5c73b72c1dfbcdf0bede6232fff80d03da4eca0029a165627a7a72305820f4dca7c33772085fa76a3a7cffa9a2fd92306333fcd2e4aa1ca0b7b1492acd6a0029",
  "source": "pragma solidity ^0.4.24;\n\nimport \"./InnLockup.sol\";\n\n/// @title BlocStay Network INN Lock-up Generator\n/// @author James Kennedy - hat-tip to Open-Zeppelin, Radek Ostrowski, and Maciek Zielinski for their codebase\n/// as a starting point\n/// @notice Generator for all lock-ups, as necessary, for INN tokens\n/// @dev A new address and contract are generated for each lock-up\ncontract InnLockupGenerator {\n    mapping(address => address[]) innRecipients;\n\n    function getWallets(address _user) public view returns(address[]) {\n        return innRecipients[_user];\n    }\n\n    function generateInnLockup(address _owner, uint256 _unlockDate) payable public returns(address innRecipient) {\n        innRecipient = new InnLockup(msg.sender, _owner, _unlockDate);  // Generate new inn lockup\n        innRecipients[msg.sender].push(innRecipient);  // Track all INN recipient addresses\n\n        // If owner is the same as sender then add innRecipient to sender's innRecipients too.\n        if(msg.sender != _owner){\n            innRecipients[_owner].push(innRecipient);\n        }\n\n        // Send ether from this transaction to the created contract.\n        innRecipient.transfer(msg.value);\n\n        emit Created(innRecipient, msg.sender, _owner, now, _unlockDate, msg.value);\n    }\n\n    /// @dev Fallback should fail \n    function () public {\n        revert();\n    }\n\n    event Created(address innRecipient, address from, address to, uint256 createdAt, uint256 unlockDate, uint256 amount);\n}",
  "sourcePath": "/Users/mbpJames/WebstormProjects/IcoTest2/contracts/InnLockupGenerator.sol",
  "compiler": {
    "name": "solc",
    "version": "0.4.24+commit.e67f0147.Emscripten.clang"
  },
  "schemaVersion": "2.0.0",
  "updatedAt": "2018-06-24T12:42:18.825Z"
}