{
  "contractName": "InnLockup",
  "abi": [
    {
      "constant": true,
      "inputs": [],
      "name": "createdTimestamp",
      "outputs": [
        {
          "name": "",
          "type": "uint256"
        }
      ],
      "payable": false,
      "stateMutability": "view",
      "type": "function"
    },
    {
      "constant": true,
      "inputs": [],
      "name": "originator",
      "outputs": [
        {
          "name": "",
          "type": "address"
        }
      ],
      "payable": false,
      "stateMutability": "view",
      "type": "function"
    },
    {
      "constant": true,
      "inputs": [],
      "name": "endRecipient",
      "outputs": [
        {
          "name": "",
          "type": "address"
        }
      ],
      "payable": false,
      "stateMutability": "view",
      "type": "function"
    },
    {
      "constant": true,
      "inputs": [],
      "name": "unlockTimestamp",
      "outputs": [
        {
          "name": "",
          "type": "uint256"
        }
      ],
      "payable": false,
      "stateMutability": "view",
      "type": "function"
    },
    {
      "inputs": [
        {
          "name": "_originator",
          "type": "address"
        },
        {
          "name": "_endRecipient",
          "type": "address"
        },
        {
          "name": "_unlockTimestamp",
          "type": "uint256"
        }
      ],
      "payable": false,
      "stateMutability": "nonpayable",
      "type": "constructor"
    },
    {
      "payable": true,
      "stateMutability": "payable",
      "type": "fallback"
    },
    {
      "anonymous": false,
      "inputs": [
        {
          "indexed": false,
          "name": "endRecipient",
          "type": "address"
        },
        {
          "indexed": false,
          "name": "unlockTimestamp",
          "type": "uint256"
        }
      ],
      "name": "Received",
      "type": "event"
    },
    {
      "anonymous": false,
      "inputs": [
        {
          "indexed": false,
          "name": "to",
          "type": "address"
        },
        {
          "indexed": false,
          "name": "amount",
          "type": "uint256"
        }
      ],
      "name": "Withdrew",
      "type": "event"
    },
    {
      "anonymous": false,
      "inputs": [
        {
          "indexed": false,
          "name": "tokenContract",
          "type": "address"
        },
        {
          "indexed": false,
          "name": "to",
          "type": "address"
        },
        {
          "indexed": false,
          "name": "amount",
          "type": "uint256"
        }
      ],
      "name": "WithdrewTokens",
      "type": "event"
    },
    {
      "constant": true,
      "inputs": [],
      "name": "info",
      "outputs": [
        {
          "name": "",
          "type": "address"
        },
        {
          "name": "",
          "type": "address"
        },
        {
          "name": "",
          "type": "uint256"
        },
        {
          "name": "",
          "type": "uint256"
        },
        {
          "name": "",
          "type": "uint256"
        }
      ],
      "payable": false,
      "stateMutability": "view",
      "type": "function"
    },
    {
      "constant": false,
      "inputs": [],
      "name": "release",
      "outputs": [],
      "payable": false,
      "stateMutability": "nonpayable",
      "type": "function"
    },
    {
      "constant": false,
      "inputs": [
        {
          "name": "_tokenContract",
          "type": "address"
        }
      ],
      "name": "releaseInn",
      "outputs": [],
      "payable": false,
      "stateMutability": "nonpayable",
      "type": "function"
    }
  ],
  "bytecode": "0x608060405234801561001057600080fd5b506040516060806109a3833981018060405281019080805190602001909291908051906020019092919080519060200190929190505050428111151561005557600080fd5b82600160006101000a81548173ffffffffffffffffffffffffffffffffffffffff021916908373ffffffffffffffffffffffffffffffffffffffff160217905550816000806101000a81548173ffffffffffffffffffffffffffffffffffffffff021916908373ffffffffffffffffffffffffffffffffffffffff16021790555080600481905550426003819055507f88a5966d370b9919b20f3e2c13ff65706f196a4e32cc2c12bf57088f885258748282604051808373ffffffffffffffffffffffffffffffffffffffff1673ffffffffffffffffffffffffffffffffffffffff1681526020018281526020019250505060405180910390a1505050610842806101616000396000f300608060405260043610610083576000357c0100000000000000000000000000000000000000000000000000000000900463ffffffff1680631030978114610088578063370158ea146100b35780633c815d9e146101525780637952ecd9146101a957806386d1a69f14610200578063aa082a9d14610217578063eb6e0f2914610242575b600080fd5b34801561009457600080fd5b5061009d610285565b6040518082815260200191505060405180910390f35b3480156100bf57600080fd5b506100c861028b565b604051808673ffffffffffffffffffffffffffffffffffffffff1673ffffffffffffffffffffffffffffffffffffffff1681526020018573ffffffffffffffffffffffffffffffffffffffff1673ffffffffffffffffffffffffffffffffffffffff1681526020018481526020018381526020018281526020019550505050505060405180910390f35b34801561015e57600080fd5b50610167610307565b604051808273ffffffffffffffffffffffffffffffffffffffff1673ffffffffffffffffffffffffffffffffffffffff16815260200191505060405180910390f35b3480156101b557600080fd5b506101be61032d565b604051808273ffffffffffffffffffffffffffffffffffffffff1673ffffffffffffffffffffffffffffffffffffffff16815260200191505060405180910390f35b34801561020c57600080fd5b50610215610352565b005b34801561022357600080fd5b5061022c610468565b6040518082815260200191505060405180910390f35b34801561024e57600080fd5b50610283600480360381019080803573ffffffffffffffffffffffffffffffffffffffff16906020019092919050505061046e565b005b60035481565b6000806000806000600160009054906101000a900473ffffffffffffffffffffffffffffffffffffffff166000809054906101000a900473ffffffffffffffffffffffffffffffffffffffff166004546003543073ffffffffffffffffffffffffffffffffffffffff1631945094509450945094509091929394565b600160009054906101000a900473ffffffffffffffffffffffffffffffffffffffff1681565b6000809054906101000a900473ffffffffffffffffffffffffffffffffffffffff1681565b6000809054906101000a900473ffffffffffffffffffffffffffffffffffffffff1673ffffffffffffffffffffffffffffffffffffffff163373ffffffffffffffffffffffffffffffffffffffff161415156103ad57600080fd5b60045442101515156103be57600080fd5b60003073ffffffffffffffffffffffffffffffffffffffff16311115156103e457600080fd5b7fb244b9a17ad633c6e83b7983ee04320484956a68ddbe96a0b70dfca1cf19d723333073ffffffffffffffffffffffffffffffffffffffff1631604051808373ffffffffffffffffffffffffffffffffffffffff1673ffffffffffffffffffffffffffffffffffffffff1681526020018281526020019250505060405180910390a1565b60045481565b60008060009054906101000a900473ffffffffffffffffffffffffffffffffffffffff1673ffffffffffffffffffffffffffffffffffffffff163373ffffffffffffffffffffffffffffffffffffffff161415156104cb57600080fd5b60045442101515156104dc57600080fd5b81600260006101000a81548173ffffffffffffffffffffffffffffffffffffffff021916908373ffffffffffffffffffffffffffffffffffffffff160217905550600260009054906101000a900473ffffffffffffffffffffffffffffffffffffffff1673ffffffffffffffffffffffffffffffffffffffff166370a08231306040518263ffffffff167c0100000000000000000000000000000000000000000000000000000000028152600401808273ffffffffffffffffffffffffffffffffffffffff1673ffffffffffffffffffffffffffffffffffffffff168152602001915050602060405180830381600087803b1580156105da57600080fd5b505af11580156105ee573d6000803e3d6000fd5b505050506040513d602081101561060457600080fd5b810190808051906020019092919050505090506106856000809054906101000a900473ffffffffffffffffffffffffffffffffffffffff1682600260009054906101000a900473ffffffffffffffffffffffffffffffffffffffff1673ffffffffffffffffffffffffffffffffffffffff166107289092919063ffffffff16565b7fa04c965e7d289704527a948915777d68bb4530fb4b08aa935fb958c0b7901ab9823383604051808473ffffffffffffffffffffffffffffffffffffffff1673ffffffffffffffffffffffffffffffffffffffff1681526020018373ffffffffffffffffffffffffffffffffffffffff1673ffffffffffffffffffffffffffffffffffffffff168152602001828152602001935050505060405180910390a15050565b8273ffffffffffffffffffffffffffffffffffffffff1663a9059cbb83836040518363ffffffff167c0100000000000000000000000000000000000000000000000000000000028152600401808373ffffffffffffffffffffffffffffffffffffffff1673ffffffffffffffffffffffffffffffffffffffff16815260200182815260200192505050602060405180830381600087803b1580156107cb57600080fd5b505af11580156107df573d6000803e3d6000fd5b505050506040513d60208110156107f557600080fd5b8101908080519060200190929190505050151561081157600080fd5b5050505600a165627a7a723058200ba8ffa102e15cf8e16c33a4621729402646baf696300fc2f0727d66538d45d40029",
  "source": "pragma solidity ^0.4.24;\n\nimport \"./TokenBaseInn.sol\";\nimport \"./TokenErrorHandling.sol\";\n\n/// @title BlocStay Network INN token lock-up\n/// @author James Kennedy - hat-tip to Open-Zeppelin for based code with audited sections\n/// @notice Locks up INN tokens for the desired period\n/// @dev Releases tokens at the end of the proper period\ncontract InnLockup {\n    using TokenErrorHandling for TokenBaseInn;\n\n    address public endRecipient;  // Address of end recipient\n    address public originator;  // Address of lock-up origination\n    TokenBaseInn token;  // Token with safety built in\n    uint256 public createdTimestamp;\n    uint256 public unlockTimestamp;  // Timestamp when release is allowed\n\n    event Received(address endRecipient, uint256 unlockTimestamp);\n    event Withdrew(address to, uint256 amount);\n    event WithdrewTokens(address tokenContract, address to, uint256 amount);\n\n    modifier onlyGenerator {\n        require(msg.sender == endRecipient);\n        _;\n    }\n\n    /// @dev Base call from generator to start this lock-up and tie to an INN token set\n    /// @param _originator Origination address of generation\n    /// @param _endRecipient The beneficiary of the locked up INN tokens\n    /// @param _unlockTimestamp Set for when the INN tokens will be released\n    constructor (address _originator, address _endRecipient, uint256 _unlockTimestamp) public {\n        require(_unlockTimestamp > block.timestamp);\n\n        originator = _originator;\n        endRecipient = _endRecipient;\n        unlockTimestamp = _unlockTimestamp;\n        createdTimestamp = now;\n\n        emit Received(_endRecipient, _unlockTimestamp);\n    }\n\n    /// @dev Do not keep any ETH here\n    function() payable public {\n        revert();  // This generator is only for INN token lock-up\n    }\n\n    function info() public view returns(address, address, uint256, uint256, uint256) {\n        return (originator, endRecipient, unlockTimestamp, createdTimestamp, address(this).balance);\n    }\n\n    /// @notice Transfers tokens held by timelock to endRecipient\n    function release() onlyGenerator public {\n        require(block.timestamp >= unlockTimestamp);  // solium would not allow block members\n        require(address(this).balance > 0);\n        //msg.sender.tryTransfer(endRecipient, address(this).balance);  DEV - Must fix\n        emit Withdrew(msg.sender, address(this).balance);\n    }\n\n    /// @dev Call to release INN tokens\n    function releaseInn(address _tokenContract) onlyGenerator public {\n        require(block.timestamp >= unlockTimestamp);\n        token = TokenBaseInn(_tokenContract);\n        uint256 tokenBalance = token.balanceOf(this);\n        token.tryTransfer(endRecipient, tokenBalance);\n        emit WithdrewTokens(_tokenContract, msg.sender, tokenBalance);\n    }\n}",
  "sourcePath": "/Users/mbpJames/WebstormProjects/IcoTest2/contracts/InnLockup.sol",
  "compiler": {
    "name": "solc",
    "version": "0.4.24+commit.e67f0147.Emscripten.clang"
  },
  "schemaVersion": "2.0.0",
  "updatedAt": "2018-06-24T13:48:05.397Z"
}