{
  "contractName": "InnTokenProduce",
  "abi": [
    {
      "constant": true,
      "inputs": [
        {
          "name": "_add",
          "type": "address"
        },
        {
          "name": "_v",
          "type": "uint8"
        },
        {
          "name": "_r",
          "type": "bytes32"
        },
        {
          "name": "_s",
          "type": "bytes32"
        }
      ],
      "name": "isValidAccessMessage",
      "outputs": [
        {
          "name": "",
          "type": "bool"
        }
      ],
      "payable": false,
      "stateMutability": "view",
      "type": "function"
    },
    {
      "constant": false,
      "inputs": [
        {
          "name": "_newController",
          "type": "address"
        }
      ],
      "name": "transferControl",
      "outputs": [],
      "payable": false,
      "stateMutability": "nonpayable",
      "type": "function"
    },
    {
      "constant": true,
      "inputs": [],
      "name": "escrow",
      "outputs": [
        {
          "name": "",
          "type": "address"
        }
      ],
      "payable": false,
      "stateMutability": "view",
      "type": "function"
    },
    {
      "constant": true,
      "inputs": [],
      "name": "controller",
      "outputs": [
        {
          "name": "",
          "type": "address"
        }
      ],
      "payable": false,
      "stateMutability": "view",
      "type": "function"
    },
    {
      "constant": true,
      "inputs": [],
      "name": "token",
      "outputs": [
        {
          "name": "",
          "type": "address"
        }
      ],
      "payable": false,
      "stateMutability": "view",
      "type": "function"
    },
    {
      "inputs": [
        {
          "name": "_bonusStartArray",
          "type": "uint256[]"
        },
        {
          "name": "_bonusEndArray",
          "type": "uint256[]"
        },
        {
          "name": "_bonusInnPercentArray",
          "type": "uint8[]"
        },
        {
          "name": "_capConstructorArray",
          "type": "uint32[]"
        },
        {
          "name": "_closeGoalBonusArray",
          "type": "uint32[]"
        },
        {
          "name": "_closingTimeArray",
          "type": "uint256[]"
        },
        {
          "name": "_decimals",
          "type": "uint8"
        },
        {
          "name": "_miscConstructorArray",
          "type": "uint256[]"
        },
        {
          "name": "_name",
          "type": "string"
        },
        {
          "name": "_openingTimeArray",
          "type": "uint256[]"
        },
        {
          "name": "_symbol",
          "type": "string"
        },
        {
          "name": "_targetAddress",
          "type": "address"
        }
      ],
      "payable": false,
      "stateMutability": "nonpayable",
      "type": "constructor"
    },
    {
      "payable": true,
      "stateMutability": "payable",
      "type": "fallback"
    },
    {
      "anonymous": false,
      "inputs": [
        {
          "indexed": false,
          "name": "tokensProducedCommunity",
          "type": "uint256"
        },
        {
          "indexed": false,
          "name": "tokensProducedCompany",
          "type": "uint256"
        },
        {
          "indexed": false,
          "name": "tokensProducedTeam",
          "type": "uint256"
        },
        {
          "indexed": false,
          "name": "tokensProducedIco",
          "type": "uint256"
        },
        {
          "indexed": false,
          "name": "tokensProducedPreIco",
          "type": "uint256"
        },
        {
          "indexed": false,
          "name": "stage",
          "type": "uint8"
        }
      ],
      "name": "FinishCallFailed",
      "type": "event"
    },
    {
      "anonymous": false,
      "inputs": [
        {
          "indexed": false,
          "name": "settings",
          "type": "uint256[]"
        }
      ],
      "name": "ProductionSettings",
      "type": "event"
    },
    {
      "anonymous": false,
      "inputs": [],
      "name": "Finalized",
      "type": "event"
    },
    {
      "anonymous": false,
      "inputs": [
        {
          "indexed": false,
          "name": "_innRecipient",
          "type": "address"
        },
        {
          "indexed": false,
          "name": "_produced",
          "type": "uint256"
        }
      ],
      "name": "Produced",
      "type": "event"
    },
    {
      "anonymous": false,
      "inputs": [
        {
          "indexed": true,
          "name": "requestor",
          "type": "address"
        },
        {
          "indexed": true,
          "name": "innRecipient",
          "type": "address"
        },
        {
          "indexed": false,
          "name": "value",
          "type": "uint256"
        },
        {
          "indexed": false,
          "name": "amount",
          "type": "uint256"
        }
      ],
      "name": "TokenProduction",
      "type": "event"
    },
    {
      "anonymous": false,
      "inputs": [
        {
          "indexed": true,
          "name": "previousController",
          "type": "address"
        },
        {
          "indexed": true,
          "name": "newController",
          "type": "address"
        }
      ],
      "name": "ControlTransferred",
      "type": "event"
    },
    {
      "constant": false,
      "inputs": [],
      "name": "claimRefund",
      "outputs": [],
      "payable": false,
      "stateMutability": "nonpayable",
      "type": "function"
    },
    {
      "constant": false,
      "inputs": [],
      "name": "finish",
      "outputs": [],
      "payable": false,
      "stateMutability": "nonpayable",
      "type": "function"
    },
    {
      "constant": true,
      "inputs": [],
      "name": "goalReached",
      "outputs": [
        {
          "name": "",
          "type": "bool"
        }
      ],
      "payable": false,
      "stateMutability": "view",
      "type": "function"
    },
    {
      "constant": true,
      "inputs": [],
      "name": "hasClosed",
      "outputs": [
        {
          "name": "",
          "type": "bool"
        }
      ],
      "payable": false,
      "stateMutability": "view",
      "type": "function"
    },
    {
      "constant": false,
      "inputs": [
        {
          "name": "_innRecipient",
          "type": "address"
        },
        {
          "name": "_v",
          "type": "uint8"
        },
        {
          "name": "_r",
          "type": "bytes32"
        },
        {
          "name": "_s",
          "type": "bytes32"
        }
      ],
      "name": "produceTokensDuringOpenPeriod",
      "outputs": [],
      "payable": true,
      "stateMutability": "payable",
      "type": "function"
    },
    {
      "constant": false,
      "inputs": [
        {
          "name": "purpose",
          "type": "uint8"
        },
        {
          "name": "quantity",
          "type": "uint256"
        },
        {
          "name": "innInternalReleaseDate",
          "type": "uint256"
        }
      ],
      "name": "produceTokensInternal",
      "outputs": [],
      "payable": false,
      "stateMutability": "nonpayable",
      "type": "function"
    },
    {
      "constant": false,
      "inputs": [
        {
          "name": "_rate",
          "type": "uint256"
        }
      ],
      "name": "setCurrentRate",
      "outputs": [],
      "payable": false,
      "stateMutability": "nonpayable",
      "type": "function"
    },
    {
      "constant": false,
      "inputs": [
        {
          "name": "value",
          "type": "uint256"
        }
      ],
      "name": "setProductionStage",
      "outputs": [],
      "payable": false,
      "stateMutability": "nonpayable",
      "type": "function"
    }
  ],
  "bytecode": "0x60806040526000600160166101000a81548160ff0219169083151502179055506000600260146101000a81548160ff021916908360018111156200003f57fe5b02179055503480156200005157600080fd5b5060405162004d9d38038062004d9d833981018060405281019080805182019291906020018051820192919060200180518201929190602001805182019291906020018051820192919060200180518201929190602001805190602001909291908051820192919060200180518201929190602001805182019291906020018051820192919060200180519060200190929190505050336000806101000a81548173ffffffffffffffffffffffffffffffffffffffff021916908373ffffffffffffffffffffffffffffffffffffffff16021790555060008560008151811015156200013957fe5b906020019060200201511115156200015057600080fd5b60008560018151811015156200016257fe5b906020019060200201511115156200017957600080fd5b60008960008151811015156200018b57fe5b9060200190602002015163ffffffff16111515620001a857600080fd5b6000896001815181101515620001ba57fe5b9060200190602002015163ffffffff16111515620001d757600080fd5b6000896002815181101515620001e957fe5b9060200190602002015163ffffffff161115156200020657600080fd5b60008960038151811015156200021857fe5b9060200190602002015163ffffffff161115156200023557600080fd5b60008960048151811015156200024757fe5b9060200190602002015163ffffffff161115156200026457600080fd5b60008960058151811015156200027657fe5b9060200190602002015163ffffffff161115156200029357600080fd5b826000815181101515620002a357fe5b90602001906020020151876000815181101515620002bd57fe5b9060200190602002015110151515620002d557600080fd5b866000815181101515620002e557fe5b90602001906020020151836001815181101515620002ff57fe5b90602001906020020151101515156200031757600080fd5b8260018151811015156200032757fe5b906020019060200201518760018151811015156200034157fe5b90602001906020020151101515156200035957600080fd5b60008560028151811015156200036b57fe5b906020019060200201511115156200038257600080fd5b60008560038151811015156200039457fe5b90602001906020020151111515620003ab57600080fd5b62000400856001815181101515620003bf57fe5b90602001906020020151866000815181101515620003d957fe5b90602001906020020151620009b06401000000000262001934179091906401000000009004565b620004558660038151811015156200041457fe5b906020019060200201518760028151811015156200042e57fe5b90602001906020020151620009b06401000000000262001934179091906401000000009004565b111515156200046357600080fd5b428560058151811015156200047457fe5b90602001906020020151101515156200048c57600080fd5b60008451141515156200049e57600080fd5b42836000815181101515620004af57fe5b9060200190602002015110151515620004c757600080fd5b6000856006815181101515620004d957fe5b90602001906020020151111515620004f057600080fd5b60008251141515156200050257600080fd5b600073ffffffffffffffffffffffffffffffffffffffff168173ffffffffffffffffffffffffffffffffffffffff16141515156200053f57600080fd5b8b600890805190602001906200055792919062000b3a565b508a600990805190602001906200057092919062000b3a565b5089602190805190602001906200058992919062000b8c565b508460008151811015156200059a57fe5b90602001906020020151600a81905550846001815181101515620005ba57fe5b90602001906020020151600b81905550886000815181101515620005da57fe5b90602001906020020151601e60006101000a81548163ffffffff021916908363ffffffff1602179055508860018151811015156200061457fe5b90602001906020020151601e60086101000a81548163ffffffff021916908363ffffffff1602179055508860028151811015156200064e57fe5b90602001906020020151601e600c6101000a81548163ffffffff021916908363ffffffff1602179055508860038151811015156200068857fe5b90602001906020020151601e60106101000a81548163ffffffff021916908363ffffffff160217905550886004815181101515620006c257fe5b90602001906020020151601e60146101000a81548163ffffffff021916908363ffffffff160217905550886005815181101515620006fc57fe5b90602001906020020151601e60186101000a81548163ffffffff021916908363ffffffff1602179055508860058151811015156200073657fe5b906020019060200201518960048151811015156200075057fe5b906020019060200201518a60038151811015156200076a57fe5b906020019060200201518b60028151811015156200078457fe5b906020019060200201518c60018151811015156200079e57fe5b9060200190602002015101010101601e60046101000a81548163ffffffff021916908363ffffffff16021790555087601f9080519060200190620007e492919062000c3a565b5086600c9080519060200190620007fd92919062000b3a565b5085602260006101000a81548160ff021916908360ff1602179055508460028151811015156200082957fe5b90602001906020020151600e819055508460038151811015156200084957fe5b90602001906020020151600f819055508460048151811015156200086957fe5b90602001906020020151600d819055508460058151811015156200088957fe5b906020019060200201516010819055508360039080519060200190620008b192919062000cf1565b508260139080519060200190620008ca92919062000b3a565b50846006815181101515620008db57fe5b9060200190602002015160148190555081600490805190602001906200090392919062000cf1565b5080600160006101000a81548173ffffffffffffffffffffffffffffffffffffffff021916908373ffffffffffffffffffffffffffffffffffffffff1602179055506200095e620009cd640100000000026401000000009004565b600560006101000a81548173ffffffffffffffffffffffffffffffffffffffff021916908373ffffffffffffffffffffffffffffffffffffffff16021790555050505050505050505050505062000e1a565b60008183019050828110151515620009c457fe5b80905092915050565b600060036004602260009054906101000a900460ff16620009ed62000d78565b8080602001806020018460ff1660ff16815260200183810383528681815460018160011615610100020316600290048152602001915080546001816001161561010002031660029004801562000a875780601f1062000a5b5761010080835404028352916020019162000a87565b820191906000526020600020905b81548152906001019060200180831162000a6957829003601f168201915b505083810382528581815460018160011615610100020316600290048152602001915080546001816001161561010002031660029004801562000b0e5780601f1062000ae25761010080835404028352916020019162000b0e565b820191906000526020600020905b81548152906001019060200180831162000af057829003601f168201915b505095505050505050604051809103906000f08015801562000b34573d6000803e3d6000fd5b50905090565b82805482825590600052602060002090810192821562000b79579160200282015b8281111562000b7857825182559160200191906001019062000b5b565b5b50905062000b88919062000d89565b5090565b82805482825590600052602060002090601f0160209004810192821562000c275791602002820160005b8382111562000bf657835183826101000a81548160ff021916908360ff160217905550926020019260010160208160000104928301926001030262000bb6565b801562000c255782816101000a81549060ff021916905560010160208160000104928301926001030262000bf6565b505b50905062000c36919062000db1565b5090565b8280548282559060005260206000209060070160089004810192821562000cde5791602002820160005b8382111562000caa57835183826101000a81548163ffffffff021916908363ffffffff160217905550926020019260040160208160030104928301926001030262000c64565b801562000cdc5782816101000a81549063ffffffff021916905560040160208160030104928301926001030262000caa565b505b50905062000ced919062000de4565b5090565b828054600181600116156101000203166002900490600052602060002090601f016020900481019282601f1062000d3457805160ff191683800117855562000d65565b8280016001018555821562000d65579182015b8281111562000d6457825182559160200191906001019062000d47565b5b50905062000d74919062000d89565b5090565b604051611883806200351a83390190565b62000dae91905b8082111562000daa57600081600090555060010162000d90565b5090565b90565b62000de191905b8082111562000ddd57600081816101000a81549060ff02191690555060010162000db8565b5090565b90565b62000e1791905b8082111562000e1357600081816101000a81549063ffffffff02191690555060010162000deb565b5090565b90565b6126f08062000e2a6000396000f3006080604052600436106100c5576000357c0100000000000000000000000000000000000000000000000000000000900463ffffffff1680630b5f2efd146100ca5780631515bc2b146100f75780631e2195581461012657806323eae6701461018557806332624114146101c95780636d16fa411461024d5780637d3d6522146102905780639527529c146102bf578063b5545a3c146102ec578063d56b288914610303578063e2fdcc171461031a578063f77c479114610371578063fc0c546a146103c8575b600080fd5b3480156100d657600080fd5b506100f56004803603810190808035906020019092919050505061041f565b005b34801561010357600080fd5b5061010c610484565b604051808215151515815260200191505060405180910390f35b610183600480360381019080803573ffffffffffffffffffffffffffffffffffffffff169060200190929190803560ff169060200190929190803560001916906020019092919080356000191690602001909291905050506104a8565b005b34801561019157600080fd5b506101c7600480360381019080803560ff1690602001909291908035906020019092919080359060200190929190505050610c99565b005b3480156101d557600080fd5b50610233600480360381019080803573ffffffffffffffffffffffffffffffffffffffff169060200190929190803560ff16906020019092919080356000191690602001909291908035600019169060200190929190505050611057565b604051808215151515815260200191505060405180910390f35b34801561025957600080fd5b5061028e600480360381019080803573ffffffffffffffffffffffffffffffffffffffff1690602001909291905050506112e8565b005b34801561029c57600080fd5b506102a561143d565b604051808215151515815260200191505060405180910390f35b3480156102cb57600080fd5b506102ea600480360381019080803590602001909291905050506114cd565b005b3480156102f857600080fd5b50610301611587565b005b34801561030f57600080fd5b5061031861168d565b005b34801561032657600080fd5b5061032f61186d565b604051808273ffffffffffffffffffffffffffffffffffffffff1673ffffffffffffffffffffffffffffffffffffffff16815260200191505060405180910390f35b34801561037d57600080fd5b50610386611893565b604051808273ffffffffffffffffffffffffffffffffffffffff1673ffffffffffffffffffffffffffffffffffffffff16815260200191505060405180910390f35b3480156103d457600080fd5b506103dd6118b8565b604051808273ffffffffffffffffffffffffffffffffffffffff1673ffffffffffffffffffffffffffffffffffffffff16815260200191505060405180910390f35b6000809054906101000a900473ffffffffffffffffffffffffffffffffffffffff1673ffffffffffffffffffffffffffffffffffffffff163373ffffffffffffffffffffffffffffffffffffffff1614151561047a57600080fd5b8060148190555050565b6000600c600181548110151561049657fe5b90600052602060002001544211905090565b60008383836104b933848484611057565b15156104c457600080fd5b600060018111156104d157fe5b600260149054906101000a900460ff1660018111156104ec57fe5b1415610546576013600081548110151561050257fe5b906000526020600020015442101580156105365750600c600081548110151561052757fe5b90600052602060002001544211155b151561054157600080fd5b610596565b6013600181548110151561055657fe5b9060005260206000200154421015801561058a5750600c600181548110151561057b57fe5b90600052602060002001544211155b151561059557600080fd5b5b600080341115156105a657600080fd5b6105af346118de565b601181905550600060018111156105c257fe5b600260149054906101000a900460ff1660018111156105dd57fe5b14156106c057601e600c9054906101000a900463ffffffff1663ffffffff16610625610614346014546118fc90919063ffffffff16565b60185461193490919063ffffffff16565b1115151561063257600080fd5b610648606460115461195090919063ffffffff16565b905061066481610656611966565b6118fc90919063ffffffff16565b600681905550601e600c9054906101000a900463ffffffff1663ffffffff166106ae6006546106a060115460185461193490919063ffffffff16565b61193490919063ffffffff16565b111515156106bb57600080fd5b610710565b601e60089054906101000a900463ffffffff1663ffffffff166107026106f1346014546118fc90919063ffffffff16565b60175461193490919063ffffffff16565b1115151561070f57600080fd5b5b88600073ffffffffffffffffffffffffffffffffffffffff168173ffffffffffffffffffffffffffffffffffffffff161415151561074d57600080fd5b601e60009054906101000a900463ffffffff1663ffffffff1661088461077e601454346118fc90919063ffffffff16565b600560009054906101000a900473ffffffffffffffffffffffffffffffffffffffff1673ffffffffffffffffffffffffffffffffffffffff166370a08231856040518263ffffffff167c0100000000000000000000000000000000000000000000000000000000028152600401808273ffffffffffffffffffffffffffffffffffffffff1673ffffffffffffffffffffffffffffffffffffffff168152602001915050602060405180830381600087803b15801561083b57600080fd5b505af115801561084f573d6000803e3d6000fd5b505050506040513d602081101561086557600080fd5b810190808051906020019092919050505061193490919063ffffffff16565b1115151561089157600080fd5b6000600181111561089e57fe5b600260149054906101000a900460ff1660018111156108b957fe5b14156108e957600b546108d734601a5461193490919063ffffffff16565b111515156108e457600080fd5b61090f565b600a5461090134601a5461193490919063ffffffff16565b1115151561090e57600080fd5b5b60003411151561091e57600080fd5b61093334601a5461193490919063ffffffff16565b601a819055506000600181111561094657fe5b600260149054906101000a900460ff16600181111561096157fe5b14156109875761097c34601a5461193490919063ffffffff16565b601c819055506109d1565b60018081111561099357fe5b600260149054906101000a900460ff1660018111156109ae57fe5b14156109d0576109c934601b5461193490919063ffffffff16565b601b819055505b5b600060018111156109de57fe5b600260149054906101000a900460ff1660018111156109f957fe5b148015610a095750600f54601c54105b80610a475750600180811115610a1b57fe5b600260149054906101000a900460ff166001811115610a3657fe5b148015610a465750600e54601b54105b5b15610ae557600a34811515610a5857fe5b049550610a77610a726009886118fc90919063ffffffff16565b611a49565b600160009054906101000a900473ffffffffffffffffffffffffffffffffffffffff1673ffffffffffffffffffffffffffffffffffffffff166108fc879081150290604051600060405180830381858888f19350505050158015610adf573d6000803e3d6000fd5b50610b57565b610aed611b8b565b600160009054906101000a900473ffffffffffffffffffffffffffffffffffffffff1673ffffffffffffffffffffffffffffffffffffffff166108fc349081150290604051600060405180830381858888f19350505050158015610b55573d6000803e3d6000fd5b505b600560009054906101000a900473ffffffffffffffffffffffffffffffffffffffff168a601054610b86611d11565b808473ffffffffffffffffffffffffffffffffffffffff1673ffffffffffffffffffffffffffffffffffffffff1681526020018373ffffffffffffffffffffffffffffffffffffffff1673ffffffffffffffffffffffffffffffffffffffff1681526020018281526020019350505050604051809103906000f080158015610c12573d6000803e3d6000fd5b50508973ffffffffffffffffffffffffffffffffffffffff163373ffffffffffffffffffffffffffffffffffffffff167f6e30170c7583fa8f12cc3531d93eed74d1722829a9b04701e80fa01b69f6b8f134601154604051808381526020018281526020019250505060405180910390a3610c8d8a34611c2b565b50505050505050505050565b6000809054906101000a900473ffffffffffffffffffffffffffffffffffffffff1673ffffffffffffffffffffffffffffffffffffffff163373ffffffffffffffffffffffffffffffffffffffff16141515610cf457600080fd5b8260006002811115610d0257fe5b816002811115610d0e57fe5b1480610d30575060016002811115610d2257fe5b816002811115610d2e57fe5b145b80610d505750600280811115610d4257fe5b816002811115610d4e57fe5b145b1515610d5b57600080fd5b60006002811115610d6857fe5b816002811115610d7457fe5b1415610dce57601e60109054906101000a900463ffffffff1663ffffffff16610dbc610dab346014546118fc90919063ffffffff16565b60155461193490919063ffffffff16565b11151515610dc957600080fd5b610eba565b60016002811115610ddb57fe5b816002811115610de757fe5b1415610e4157601e60149054906101000a900463ffffffff1663ffffffff16610e2f610e1e346014546118fc90919063ffffffff16565b60165461193490919063ffffffff16565b11151515610e3c57600080fd5b610eb9565b600280811115610e4d57fe5b816002811115610e5957fe5b1415610eb357601e60189054906101000a900463ffffffff1663ffffffff16610ea1610e90346014546118fc90919063ffffffff16565b60195461193490919063ffffffff16565b11151515610eae57600080fd5b610eb8565b600080fd5b5b5b600560009054906101000a900473ffffffffffffffffffffffffffffffffffffffff16600160009054906101000a900473ffffffffffffffffffffffffffffffffffffffff1683610f09611d11565b808473ffffffffffffffffffffffffffffffffffffffff1673ffffffffffffffffffffffffffffffffffffffff1681526020018373ffffffffffffffffffffffffffffffffffffffff1673ffffffffffffffffffffffffffffffffffffffff1681526020018281526020019350505050604051809103906000f080158015610f95573d6000803e3d6000fd5b505060006002811115610fa457fe5b846002811115610fb057fe5b1415610fd657610fcb8360155461193490919063ffffffff16565b601581905550611051565b60016002811115610fe357fe5b846002811115610fef57fe5b14156110155761100a8360165461193490919063ffffffff16565b601681905550611050565b60028081111561102157fe5b84600281111561102d57fe5b141561104f576110488360195461193490919063ffffffff16565b6019819055505b5b5b50505050565b6000803086604051602001808373ffffffffffffffffffffffffffffffffffffffff1673ffffffffffffffffffffffffffffffffffffffff166c010000000000000000000000000281526014018273ffffffffffffffffffffffffffffffffffffffff1673ffffffffffffffffffffffffffffffffffffffff166c01000000000000000000000000028152601401925050506040516020818303038152906040526040518082805190602001908083835b60208310151561112d5780518252602082019150602081019050602083039250611108565b6001836020036101000a0380198251168184511680821785525050505050509050019150506040518091039020905060018160405160200180807f19457468657265756d205369676e6564204d6573736167653a0a333200000000815250601c0182600019166000191681526020019150506040516020818303038152906040526040518082805190602001908083835b6020831015156111e357805182526020820191506020810190506020830392506111be565b6001836020036101000a0380198251168184511680821785525050505050509050019150506040518091039020868686604051600081526020016040526040518085600019166000191681526020018460ff1660ff1681526020018360001916600019168152602001826000191660001916815260200194505050505060206040516020810390808403906000865af1158015611284573d6000803e3d6000fd5b5050506020604051035173ffffffffffffffffffffffffffffffffffffffff166000809054906101000a900473ffffffffffffffffffffffffffffffffffffffff1673ffffffffffffffffffffffffffffffffffffffff1614915050949350505050565b6000809054906101000a900473ffffffffffffffffffffffffffffffffffffffff1673ffffffffffffffffffffffffffffffffffffffff163373ffffffffffffffffffffffffffffffffffffffff1614151561134357600080fd5b600073ffffffffffffffffffffffffffffffffffffffff168173ffffffffffffffffffffffffffffffffffffffff161415151561137f57600080fd5b8073ffffffffffffffffffffffffffffffffffffffff166000809054906101000a900473ffffffffffffffffffffffffffffffffffffffff1673ffffffffffffffffffffffffffffffffffffffff167fa06677f7b64342b4bcbde423684dbdb5356acfe41ad0285b6ecbe6dc4bf427f260405160405180910390a3806000806101000a81548173ffffffffffffffffffffffffffffffffffffffff021916908373ffffffffffffffffffffffffffffffffffffffff16021790555050565b600080600090506000600181111561145157fe5b600260149054906101000a900460ff16600181111561146c57fe5b14801561147d5750600f54601c5410155b806114bc575060018081111561148f57fe5b600260149054906101000a900460ff1660018111156114aa57fe5b1480156114bb5750600e54601b5410155b5b156114c657600190505b8091505090565b60008060009054906101000a900473ffffffffffffffffffffffffffffffffffffffff1673ffffffffffffffffffffffffffffffffffffffff163373ffffffffffffffffffffffffffffffffffffffff1614151561152a57600080fd5b816000600181111561153857fe5b14156115475760009050611560565b8160018081111561155457fe5b141561155f57600190505b5b80600260146101000a81548160ff0219169083600181111561157e57fe5b02179055505050565b600160169054906101000a900460ff1615156115a257600080fd5b6115aa61143d565b1515156115b657600080fd5b600260009054906101000a900473ffffffffffffffffffffffffffffffffffffffff1673ffffffffffffffffffffffffffffffffffffffff1663fa89401a336040518263ffffffff167c0100000000000000000000000000000000000000000000000000000000028152600401808273ffffffffffffffffffffffffffffffffffffffff1673ffffffffffffffffffffffffffffffffffffffff168152602001915050600060405180830381600087803b15801561167357600080fd5b505af1158015611687573d6000803e3d6000fd5b50505050565b6000809054906101000a900473ffffffffffffffffffffffffffffffffffffffff1673ffffffffffffffffffffffffffffffffffffffff163373ffffffffffffffffffffffffffffffffffffffff161415156116e857600080fd5b600160169054906101000a900460ff1615151561170457600080fd5b601e60109054906101000a900463ffffffff1663ffffffff16601554101580156117485750601e60149054906101000a900463ffffffff1663ffffffff1660165410155b801561176e5750601e60189054906101000a900463ffffffff1663ffffffff1660195410155b80156117d2575060018081111561178157fe5b600260149054906101000a900460ff16600181111561179c57fe5b1480156117d15750601e60089054906101000a900463ffffffff1663ffffffff166017541015806117d05750600f54601854105b5b5b156117e4576117df611c9a565b61186b565b7fa7908fab138436b697f758e252fc5ec400354a8a8ec425987e93272797f46e91601554601654601954601754601854600260149054906101000a900460ff166040518087815260200186815260200185815260200184815260200183815260200182600181111561185257fe5b60ff168152602001965050505050505060405180910390a15b565b600260009054906101000a900473ffffffffffffffffffffffffffffffffffffffff1681565b6000809054906101000a900473ffffffffffffffffffffffffffffffffffffffff1681565b600560009054906101000a900473ffffffffffffffffffffffffffffffffffffffff1681565b60006118f5601454836118fc90919063ffffffff16565b9050919050565b60008083141561190f576000905061192e565b818302905081838281151561192057fe5b0414151561192a57fe5b8090505b92915050565b6000818301905082811015151561194757fe5b80905092915050565b6000818381151561195d57fe5b04905092915050565b600080600060098054905060088054905014801561198d5750602180549050600980549050145b151561199857600080fd5b6008805490509150600090505b818160ff161015611a43574260098260ff168154811015156119c357fe5b90600052602060002001541180156119f757504260088260ff168154811015156119e957fe5b906000526020600020015411155b15611a385760218160ff16815481101515611a0e57fe5b90600052602060002090602091828204019190069054906101000a900460ff1660ff169250611a44565b8060010190506119a5565b5b505090565b600160009054906101000a900473ffffffffffffffffffffffffffffffffffffffff1673ffffffffffffffffffffffffffffffffffffffff166108fc829081150290604051600060405180830381858888f19350505050158015611ab1573d6000803e3d6000fd5b50600260009054906101000a900473ffffffffffffffffffffffffffffffffffffffff1673ffffffffffffffffffffffffffffffffffffffff1663f340fa0182336040518363ffffffff167c0100000000000000000000000000000000000000000000000000000000028152600401808273ffffffffffffffffffffffffffffffffffffffff1673ffffffffffffffffffffffffffffffffffffffff1681526020019150506000604051808303818588803b158015611b6f57600080fd5b505af1158015611b83573d6000803e3d6000fd5b505050505050565b600260009054906101000a900473ffffffffffffffffffffffffffffffffffffffff1673ffffffffffffffffffffffffffffffffffffffff166343d726d66040518163ffffffff167c0100000000000000000000000000000000000000000000000000000000028152600401600060405180830381600087803b158015611c1157600080fd5b505af1158015611c25573d6000803e3d6000fd5b50505050565b7fe3e1de514b675fffba12b8d3156daeeed6ea5a2c6e3e9c9e2e87b326cdfe512c8282604051808373ffffffffffffffffffffffffffffffffffffffff1673ffffffffffffffffffffffffffffffffffffffff1681526020018281526020019250505060405180910390a15050565b600160169054906101000a900460ff16151515611cb657600080fd5b611cbe610484565b1515611cc957600080fd5b7f6823b073d48d6e3a7d385eeb601452d680e74bb46afe3255a7d778f3a9b1768160405160405180910390a160018060166101000a81548160ff021916908315150217905550565b6040516109a380611d22833901905600608060405234801561001057600080fd5b506040516060806109a3833981018060405281019080805190602001909291908051906020019092919080519060200190929190505050428111151561005557600080fd5b82600160006101000a81548173ffffffffffffffffffffffffffffffffffffffff021916908373ffffffffffffffffffffffffffffffffffffffff160217905550816000806101000a81548173ffffffffffffffffffffffffffffffffffffffff021916908373ffffffffffffffffffffffffffffffffffffffff16021790555080600481905550426003819055507f88a5966d370b9919b20f3e2c13ff65706f196a4e32cc2c12bf57088f885258748282604051808373ffffffffffffffffffffffffffffffffffffffff1673ffffffffffffffffffffffffffffffffffffffff1681526020018281526020019250505060405180910390a1505050610842806101616000396000f300608060405260043610610083576000357c0100000000000000000000000000000000000000000000000000000000900463ffffffff1680631030978114610088578063370158ea146100b35780633c815d9e146101525780637952ecd9146101a957806386d1a69f14610200578063aa082a9d14610217578063eb6e0f2914610242575b600080fd5b34801561009457600080fd5b5061009d610285565b6040518082815260200191505060405180910390f35b3480156100bf57600080fd5b506100c861028b565b604051808673ffffffffffffffffffffffffffffffffffffffff1673ffffffffffffffffffffffffffffffffffffffff1681526020018573ffffffffffffffffffffffffffffffffffffffff1673ffffffffffffffffffffffffffffffffffffffff1681526020018481526020018381526020018281526020019550505050505060405180910390f35b34801561015e57600080fd5b50610167610307565b604051808273ffffffffffffffffffffffffffffffffffffffff1673ffffffffffffffffffffffffffffffffffffffff16815260200191505060405180910390f35b3480156101b557600080fd5b506101be61032d565b604051808273ffffffffffffffffffffffffffffffffffffffff1673ffffffffffffffffffffffffffffffffffffffff16815260200191505060405180910390f35b34801561020c57600080fd5b50610215610352565b005b34801561022357600080fd5b5061022c610468565b6040518082815260200191505060405180910390f35b34801561024e57600080fd5b50610283600480360381019080803573ffffffffffffffffffffffffffffffffffffffff16906020019092919050505061046e565b005b60035481565b6000806000806000600160009054906101000a900473ffffffffffffffffffffffffffffffffffffffff166000809054906101000a900473ffffffffffffffffffffffffffffffffffffffff166004546003543073ffffffffffffffffffffffffffffffffffffffff1631945094509450945094509091929394565b600160009054906101000a900473ffffffffffffffffffffffffffffffffffffffff1681565b6000809054906101000a900473ffffffffffffffffffffffffffffffffffffffff1681565b6000809054906101000a900473ffffffffffffffffffffffffffffffffffffffff1673ffffffffffffffffffffffffffffffffffffffff163373ffffffffffffffffffffffffffffffffffffffff161415156103ad57600080fd5b60045442101515156103be57600080fd5b60003073ffffffffffffffffffffffffffffffffffffffff16311115156103e457600080fd5b7fb244b9a17ad633c6e83b7983ee04320484956a68ddbe96a0b70dfca1cf19d723333073ffffffffffffffffffffffffffffffffffffffff1631604051808373ffffffffffffffffffffffffffffffffffffffff1673ffffffffffffffffffffffffffffffffffffffff1681526020018281526020019250505060405180910390a1565b60045481565b60008060009054906101000a900473ffffffffffffffffffffffffffffffffffffffff1673ffffffffffffffffffffffffffffffffffffffff163373ffffffffffffffffffffffffffffffffffffffff161415156104cb57600080fd5b60045442101515156104dc57600080fd5b81600260006101000a81548173ffffffffffffffffffffffffffffffffffffffff021916908373ffffffffffffffffffffffffffffffffffffffff160217905550600260009054906101000a900473ffffffffffffffffffffffffffffffffffffffff1673ffffffffffffffffffffffffffffffffffffffff166370a08231306040518263ffffffff167c0100000000000000000000000000000000000000000000000000000000028152600401808273ffffffffffffffffffffffffffffffffffffffff1673ffffffffffffffffffffffffffffffffffffffff168152602001915050602060405180830381600087803b1580156105da57600080fd5b505af11580156105ee573d6000803e3d6000fd5b505050506040513d602081101561060457600080fd5b810190808051906020019092919050505090506106856000809054906101000a900473ffffffffffffffffffffffffffffffffffffffff1682600260009054906101000a900473ffffffffffffffffffffffffffffffffffffffff1673ffffffffffffffffffffffffffffffffffffffff166107289092919063ffffffff16565b7fa04c965e7d289704527a948915777d68bb4530fb4b08aa935fb958c0b7901ab9823383604051808473ffffffffffffffffffffffffffffffffffffffff1673ffffffffffffffffffffffffffffffffffffffff1681526020018373ffffffffffffffffffffffffffffffffffffffff1673ffffffffffffffffffffffffffffffffffffffff168152602001828152602001935050505060405180910390a15050565b8273ffffffffffffffffffffffffffffffffffffffff1663a9059cbb83836040518363ffffffff167c0100000000000000000000000000000000000000000000000000000000028152600401808373ffffffffffffffffffffffffffffffffffffffff1673ffffffffffffffffffffffffffffffffffffffff16815260200182815260200192505050602060405180830381600087803b1580156107cb57600080fd5b505af11580156107df573d6000803e3d6000fd5b505050506040513d60208110156107f557600080fd5b8101908080519060200190929190505050151561081157600080fd5b5050505600a165627a7a723058200ba8ffa102e15cf8e16c33a4621729402646baf696300fc2f0727d66538d45d40029a165627a7a723058208e01ae374d4de62140638e9a2f883a9b91e78bbe34fef119930196451f4721f10029608060405260008060146101000a81548160ff0219169083151502179055503480156200002b57600080fd5b506040516200188338038062001883833981018060405281019080805182019291906020018051820192919060200180519060200190929190505050336000806101000a81548173ffffffffffffffffffffffffffffffffffffffff021916908373ffffffffffffffffffffffffffffffffffffffff1602179055508260039080519060200190620000bf929190620000fd565b508160049080519060200190620000d8929190620000fd565b5080600660006101000a81548160ff021916908360ff160217905550505050620001ac565b828054600181600116156101000203166002900490600052602060002090601f016020900481019282601f106200014057805160ff191683800117855562000171565b8280016001018555821562000171579182015b828111156200017057825182559160200191906001019062000153565b5b50905062000180919062000184565b5090565b620001a991905b80821115620001a55760008160009055506001016200018b565b5090565b90565b6116c780620001bc6000396000f3006080604052600436106100d0576000357c0100000000000000000000000000000000000000000000000000000000900463ffffffff16806305d2035b146100d5578063095ea7b31461010457806318160ddd1461016957806323b872dd1461019457806327e235e31461021957806340c10f191461027057806366188463146102d55780636d16fa411461033a57806370a082311461037d5780637d64bcb4146103d4578063a9059cbb14610403578063d73dd62314610468578063dd62ed3e146104cd578063f77c479114610544575b600080fd5b3480156100e157600080fd5b506100ea61059b565b604051808215151515815260200191505060405180910390f35b34801561011057600080fd5b5061014f600480360381019080803573ffffffffffffffffffffffffffffffffffffffff169060200190929190803590602001909291905050506105ae565b604051808215151515815260200191505060405180910390f35b34801561017557600080fd5b5061017e6106a0565b6040518082815260200191505060405180910390f35b3480156101a057600080fd5b506101ff600480360381019080803573ffffffffffffffffffffffffffffffffffffffff169060200190929190803573ffffffffffffffffffffffffffffffffffffffff169060200190929190803590602001909291905050506106aa565b604051808215151515815260200191505060405180910390f35b34801561022557600080fd5b5061025a600480360381019080803573ffffffffffffffffffffffffffffffffffffffff169060200190929190505050610aa5565b6040518082815260200191505060405180910390f35b34801561027c57600080fd5b506102bb600480360381019080803573ffffffffffffffffffffffffffffffffffffffff16906020019092919080359060200190929190505050610abd565b604051808215151515815260200191505060405180910390f35b3480156102e157600080fd5b50610320600480360381019080803573ffffffffffffffffffffffffffffffffffffffff16906020019092919080359060200190929190505050610ca4565b604051808215151515815260200191505060405180910390f35b34801561034657600080fd5b5061037b600480360381019080803573ffffffffffffffffffffffffffffffffffffffff169060200190929190505050610f35565b005b34801561038957600080fd5b506103be600480360381019080803573ffffffffffffffffffffffffffffffffffffffff16906020019092919050505061108a565b6040518082815260200191505060405180910390f35b3480156103e057600080fd5b506103e96110d3565b604051808215151515815260200191505060405180910390f35b34801561040f57600080fd5b5061044e600480360381019080803573ffffffffffffffffffffffffffffffffffffffff1690602001909291908035906020019092919050505061119a565b604051808215151515815260200191505060405180910390f35b34801561047457600080fd5b506104b3600480360381019080803573ffffffffffffffffffffffffffffffffffffffff169060200190929190803590602001909291905050506113be565b604051808215151515815260200191505060405180910390f35b3480156104d957600080fd5b5061052e600480360381019080803573ffffffffffffffffffffffffffffffffffffffff169060200190929190803573ffffffffffffffffffffffffffffffffffffffff1690602001909291905050506115ba565b6040518082815260200191505060405180910390f35b34801561055057600080fd5b50610559611641565b604051808273ffffffffffffffffffffffffffffffffffffffff1673ffffffffffffffffffffffffffffffffffffffff16815260200191505060405180910390f35b600060149054906101000a900460ff1681565b600081600160003373ffffffffffffffffffffffffffffffffffffffff1673ffffffffffffffffffffffffffffffffffffffff16815260200190815260200160002060008573ffffffffffffffffffffffffffffffffffffffff1673ffffffffffffffffffffffffffffffffffffffff168152602001908152602001600020819055508273ffffffffffffffffffffffffffffffffffffffff163373ffffffffffffffffffffffffffffffffffffffff167f8c5be1e5ebec7d5bd14f71427d1e84f3dd0314c0f7b2291e5b200ac8c7c3b925846040518082815260200191505060405180910390a36001905092915050565b6000600554905090565b60008073ffffffffffffffffffffffffffffffffffffffff168473ffffffffffffffffffffffffffffffffffffffff16141515156106e757600080fd5b600073ffffffffffffffffffffffffffffffffffffffff168373ffffffffffffffffffffffffffffffffffffffff161415151561072357600080fd5b600260008573ffffffffffffffffffffffffffffffffffffffff1673ffffffffffffffffffffffffffffffffffffffff16815260200190815260200160002054821115151561077157600080fd5b600160008573ffffffffffffffffffffffffffffffffffffffff1673ffffffffffffffffffffffffffffffffffffffff16815260200190815260200160002060003373ffffffffffffffffffffffffffffffffffffffff1673ffffffffffffffffffffffffffffffffffffffff1681526020019081526020016000205482111515156107fc57600080fd5b61084e82600260008773ffffffffffffffffffffffffffffffffffffffff1673ffffffffffffffffffffffffffffffffffffffff1681526020019081526020016000205461166690919063ffffffff16565b600260008673ffffffffffffffffffffffffffffffffffffffff1673ffffffffffffffffffffffffffffffffffffffff168152602001908152602001600020819055506108e382600260008673ffffffffffffffffffffffffffffffffffffffff1673ffffffffffffffffffffffffffffffffffffffff1681526020019081526020016000205461167f90919063ffffffff16565b600260008573ffffffffffffffffffffffffffffffffffffffff1673ffffffffffffffffffffffffffffffffffffffff168152602001908152602001600020819055506109b582600160008773ffffffffffffffffffffffffffffffffffffffff1673ffffffffffffffffffffffffffffffffffffffff16815260200190815260200160002060003373ffffffffffffffffffffffffffffffffffffffff1673ffffffffffffffffffffffffffffffffffffffff1681526020019081526020016000205461166690919063ffffffff16565b600160008673ffffffffffffffffffffffffffffffffffffffff1673ffffffffffffffffffffffffffffffffffffffff16815260200190815260200160002060003373ffffffffffffffffffffffffffffffffffffffff1673ffffffffffffffffffffffffffffffffffffffff168152602001908152602001600020819055508273ffffffffffffffffffffffffffffffffffffffff168473ffffffffffffffffffffffffffffffffffffffff167fddf252ad1be2c89b69c2b068fc378daa952ba7f163c4a11628f55a4df523b3ef846040518082815260200191505060405180910390a3600190509392505050565b60026020528060005260406000206000915090505481565b60008060009054906101000a900473ffffffffffffffffffffffffffffffffffffffff1673ffffffffffffffffffffffffffffffffffffffff163373ffffffffffffffffffffffffffffffffffffffff16141515610b1a57600080fd5b600060149054906101000a900460ff16151515610b3657600080fd5b610b4b8260055461167f90919063ffffffff16565b600581905550610ba382600260008673ffffffffffffffffffffffffffffffffffffffff1673ffffffffffffffffffffffffffffffffffffffff1681526020019081526020016000205461167f90919063ffffffff16565b600260008573ffffffffffffffffffffffffffffffffffffffff1673ffffffffffffffffffffffffffffffffffffffff168152602001908152602001600020819055508273ffffffffffffffffffffffffffffffffffffffff167f0f6798a560793a54c3bcfe86a93cde1e73087d944c0ea20544137d4121396885836040518082815260200191505060405180910390a28273ffffffffffffffffffffffffffffffffffffffff16600073ffffffffffffffffffffffffffffffffffffffff167fddf252ad1be2c89b69c2b068fc378daa952ba7f163c4a11628f55a4df523b3ef846040518082815260200191505060405180910390a36001905092915050565b600080600160003373ffffffffffffffffffffffffffffffffffffffff1673ffffffffffffffffffffffffffffffffffffffff16815260200190815260200160002060008573ffffffffffffffffffffffffffffffffffffffff1673ffffffffffffffffffffffffffffffffffffffff16815260200190815260200160002054905080831115610db5576000600160003373ffffffffffffffffffffffffffffffffffffffff1673ffffffffffffffffffffffffffffffffffffffff16815260200190815260200160002060008673ffffffffffffffffffffffffffffffffffffffff1673ffffffffffffffffffffffffffffffffffffffff16815260200190815260200160002081905550610e49565b610dc8838261166690919063ffffffff16565b600160003373ffffffffffffffffffffffffffffffffffffffff1673ffffffffffffffffffffffffffffffffffffffff16815260200190815260200160002060008673ffffffffffffffffffffffffffffffffffffffff1673ffffffffffffffffffffffffffffffffffffffff168152602001908152602001600020819055505b8373ffffffffffffffffffffffffffffffffffffffff163373ffffffffffffffffffffffffffffffffffffffff167f8c5be1e5ebec7d5bd14f71427d1e84f3dd0314c0f7b2291e5b200ac8c7c3b925600160003373ffffffffffffffffffffffffffffffffffffffff1673ffffffffffffffffffffffffffffffffffffffff16815260200190815260200160002060008873ffffffffffffffffffffffffffffffffffffffff1673ffffffffffffffffffffffffffffffffffffffff168152602001908152602001600020546040518082815260200191505060405180910390a3600191505092915050565b6000809054906101000a900473ffffffffffffffffffffffffffffffffffffffff1673ffffffffffffffffffffffffffffffffffffffff163373ffffffffffffffffffffffffffffffffffffffff16141515610f9057600080fd5b600073ffffffffffffffffffffffffffffffffffffffff168173ffffffffffffffffffffffffffffffffffffffff1614151515610fcc57600080fd5b8073ffffffffffffffffffffffffffffffffffffffff166000809054906101000a900473ffffffffffffffffffffffffffffffffffffffff1673ffffffffffffffffffffffffffffffffffffffff167fa06677f7b64342b4bcbde423684dbdb5356acfe41ad0285b6ecbe6dc4bf427f260405160405180910390a3806000806101000a81548173ffffffffffffffffffffffffffffffffffffffff021916908373ffffffffffffffffffffffffffffffffffffffff16021790555050565b6000600260008373ffffffffffffffffffffffffffffffffffffffff1673ffffffffffffffffffffffffffffffffffffffff168152602001908152602001600020549050919050565b60008060009054906101000a900473ffffffffffffffffffffffffffffffffffffffff1673ffffffffffffffffffffffffffffffffffffffff163373ffffffffffffffffffffffffffffffffffffffff1614151561113057600080fd5b600060149054906101000a900460ff1615151561114c57600080fd5b6001600060146101000a81548160ff0219169083151502179055507fae5184fba832cb2b1f702aca6117b8d265eaf03ad33eb133f19dde0f5920fa0860405160405180910390a16001905090565b60008073ffffffffffffffffffffffffffffffffffffffff168373ffffffffffffffffffffffffffffffffffffffff16141515156111d757600080fd5b600260003373ffffffffffffffffffffffffffffffffffffffff1673ffffffffffffffffffffffffffffffffffffffff16815260200190815260200160002054821115151561122557600080fd5b61127782600260003373ffffffffffffffffffffffffffffffffffffffff1673ffffffffffffffffffffffffffffffffffffffff1681526020019081526020016000205461166690919063ffffffff16565b600260003373ffffffffffffffffffffffffffffffffffffffff1673ffffffffffffffffffffffffffffffffffffffff1681526020019081526020016000208190555061130c82600260008673ffffffffffffffffffffffffffffffffffffffff1673ffffffffffffffffffffffffffffffffffffffff1681526020019081526020016000205461167f90919063ffffffff16565b600260008573ffffffffffffffffffffffffffffffffffffffff1673ffffffffffffffffffffffffffffffffffffffff168152602001908152602001600020819055508273ffffffffffffffffffffffffffffffffffffffff163373ffffffffffffffffffffffffffffffffffffffff167fddf252ad1be2c89b69c2b068fc378daa952ba7f163c4a11628f55a4df523b3ef846040518082815260200191505060405180910390a36001905092915050565b600061144f82600160003373ffffffffffffffffffffffffffffffffffffffff1673ffffffffffffffffffffffffffffffffffffffff16815260200190815260200160002060008673ffffffffffffffffffffffffffffffffffffffff1673ffffffffffffffffffffffffffffffffffffffff1681526020019081526020016000205461167f90919063ffffffff16565b600160003373ffffffffffffffffffffffffffffffffffffffff1673ffffffffffffffffffffffffffffffffffffffff16815260200190815260200160002060008573ffffffffffffffffffffffffffffffffffffffff1673ffffffffffffffffffffffffffffffffffffffff168152602001908152602001600020819055508273ffffffffffffffffffffffffffffffffffffffff163373ffffffffffffffffffffffffffffffffffffffff167f8c5be1e5ebec7d5bd14f71427d1e84f3dd0314c0f7b2291e5b200ac8c7c3b925600160003373ffffffffffffffffffffffffffffffffffffffff1673ffffffffffffffffffffffffffffffffffffffff16815260200190815260200160002060008773ffffffffffffffffffffffffffffffffffffffff1673ffffffffffffffffffffffffffffffffffffffff168152602001908152602001600020546040518082815260200191505060405180910390a36001905092915050565b6000600160008473ffffffffffffffffffffffffffffffffffffffff1673ffffffffffffffffffffffffffffffffffffffff16815260200190815260200160002060008373ffffffffffffffffffffffffffffffffffffffff1673ffffffffffffffffffffffffffffffffffffffff16815260200190815260200160002054905092915050565b6000809054906101000a900473ffffffffffffffffffffffffffffffffffffffff1681565b600082821115151561167457fe5b818303905092915050565b6000818301905082811015151561169257fe5b809050929150505600a165627a7a72305820c35317644b9a48561569a95debc7bac1f95a9e4dcb0dab79a8481b0db14cde760029",
  "source": "pragma solidity ^0.4.24;\n\nimport \"./AuthorizedBuyer.sol\";\nimport \"./Escrow.sol\";\nimport \"./InnLockup.sol\";\nimport \"./TokenBaseInn.sol\";\nimport \"./TokenErrorHandling.sol\";\nimport \"./UintMath.sol\";\n\n/// @title InnTokenProduce\n/// @author James Kennedy - hat-tip to Open-Zeppelin for base code and https://github.com/sandeeppanda92\n/// @notice Produce INN tokens whether for pre-ICO/ICO or internal with cap, escrow and time lock\n/// @dev Mash-up of existing best practices\ncontract InnTokenProduce is AuthorizedBuyer {\n    using UintMath for uint256;\n    \n    address private targetAddress;  // Target address for transfer; could be another contract or a wallet\n    bool private goalReachedIco;  // Flag for soft cap goal fo ICO\n    bool private goalReachedPreIco;  // Flag for soft cap goal for pre-ICO\n    bool private isFinalized = false;\n    enum CapCheck { PreIco, Ico, Community, Company, Team }\n    enum IcoStage { PreIco, Ico }\n    enum TokenPurpose { Community, Company, Team }\n    Escrow public escrow;  // Address to hold any tokens pending escrow release or return\n    IcoStage private stage = IcoStage.PreIco;  // Default case is PreIco\n    string private name;  // Name of the generated base INN token\n    string private symbol;  // Symbol for the generated base INN token\n    TokenBaseInn public token;  // Token for production through sale/vesting/minting\n    uint256 private bonusInnQty;  // Bonus INN tokens during pre-ICO\n    uint256 private bonusInnPercent;  // Bonus percent of INN for a production calculation\n    uint256[] private bonusStartArray;  // Array of start dates for bonus\n    uint256[] private bonusEndArray;  // Array of end dates for bonus\n    uint256 private capWeiIco;  // Cap for ICO round in dollars\n    uint256 private capWeiPreIco;  // Cap for Pre-ICO round in dollars\n    uint256[] private closingTimeArray;  // Closing times for phases\n    uint256 private goalPreIcoBonus;  // Optional bonus for achieving pre-ICO goal\n    uint256 private goalWeiRaiseIco;  // Soft cap goal for ICO\n    uint256 private goalWeiRaisePreIco;  // Soft cap goal for Pre-ICO\n    uint256 private innTokenIcoReleaseDate;  // Release date for INN tokens locked up during ICO\n    uint256 private innTokensToProduce;  // Amount of INN tokens per Eth\n    uint256[] private miscConstructorArray;  // Miscellaneous variable array to fix Stack too Deep Error\n    uint256[] private openingTimeArray;  // Opening times for phases\n    uint256 private rate;  // INN/wei\n    uint256 private tokensProducedCommunity;  // Tokens produced for community\n    uint256 private tokensProducedCompany;  // Tokens produced for company\n    uint256 private tokensProducedIco;  // Tokens produced in ICO\n    uint256 private tokensProducedPreIco;  // Tokens produced in pre-ICO\n    uint256 private tokensProducedTeam;  // Tokens produced for the team\n    uint256 private weiRaised; // Wei raised in total\n    uint256 private weiRaisedIco;  // Wei raised in ICO\n    uint256 private weiRaisedPreIco;  // Wei raised pre-ICO\n    uint32[] private capConstructorArray;  // To fix a Stack too deep error\n    uint32 private capRecipient;  // Cap for a recipient\n    uint32 private capTokens;  // Cap for production of tokens\n    uint32 private capTokensIco;  // Cap for ICO\n    uint32 private capTokensPreIco;  // Cap for Pre-ICO\n    uint32 private capTokensCommunityReserve;  // Cap for community reserve fund\n    uint32 private capTokensCompanyReserve;  // Cap for company reserve fund\n    uint32 private capTokensTeam;  // Cap for team, advisors and opportunities\n    uint32[] private closeGoalBonusArray;  // INN bonus for being the transaction that closes out the phase goal\n    uint32 private dollarsRaisedIco;  // Rough calculation of dollars raised based on wei per phase\n    uint32 private dollarsRaisedPreIco;  // Rough calculation of dollars raised based on wei per phase\n    uint32 private dollarWei;  // Rough number of dollar \"wei\" per wei\n    uint8[] private bonusInnPercentArray;  // Array of bonus percent amounts in INN\n    uint8 private decimals; // Number of decimals for the associated INN token\n\n    event FinishCallFailed(uint256 tokensProducedCommunity, uint256 tokensProducedCompany, uint256 tokensProducedTeam,\n        uint256 tokensProducedIco, uint256 tokensProducedPreIco, IcoStage stage);\n    event ProductionSettings(uint256[] settings);  // Emit the final settings for the contract\n\n    /// @dev Production can be finalized\n    event Finalized();\n\n    /// @dev Production has been completed\n    event Produced(address _innRecipient, uint256 _produced);\n\n    /// @dev Event for token production logging\n    /// @param requestor Party who wants to produce tokens\n    /// @param innRecipient Party who received the produced tokens\n    /// @param value Weis paid for production\n    /// @param amount Amount of tokens produced\n    event TokenProduction(address indexed requestor, address indexed innRecipient, uint256 value, uint256 amount);\n\n    /// @dev Ensure that bonus arrays have equal length\n    modifier arraysHaveEqualLength {\n        require(bonusStartArray.length == bonusEndArray.length && bonusEndArray.length == bonusInnPercentArray.length);\n        _;\n    }\n\n    /// @dev Requires time range for pre-ICO, ICO bonuses and production\n    modifier isOpenPeriod {\n        if(stage == IcoStage.PreIco) {  // solium error while using block below\n            require(block.timestamp >= openingTimeArray[0] && block.timestamp <= closingTimeArray[0]);\n        } else {\n            require(block.timestamp >= openingTimeArray[1] && block.timestamp <= closingTimeArray[1]);\n        }\n        _;\n    }\n\n    /// @dev Ensure that the recipient is not capped\n    modifier recipientNotCapped(address innRecipient) {\n        require(innRecipient != address(0));\n        require(token.balanceOf(innRecipient).plus(msg.value.times(rate)) <= capRecipient);\n        _;\n    }\n    \n    /// @dev Ensure hard cap not exceeded for a phase based on daily wei set\n    modifier tokenPhaseHardCapNotExceeded {\n        if(stage == IcoStage.PreIco) {\n            require(weiRaised.plus(msg.value) <= capWeiPreIco);\n        } else {\n            require(weiRaised.plus(msg.value) <= capWeiIco);\n        }\n        _;\n    }\n\n    /// @dev Ensure token production caps for a phase will not be exceeded\n    modifier tokenPhaseProductionCapNotExceeded {\n        require(msg.value > 0);\n        innTokensToProduce = _getTokenAmount(msg.value);\n        \n        if(stage == IcoStage.PreIco) {\n            require(tokensProducedPreIco.plus(rate.times(msg.value)) <= capTokensPreIco);\n            uint256 onePercent = innTokensToProduce.dividedBy(100);\n            bonusInnQty = _calculateBonus().times(onePercent);\n            require(tokensProducedPreIco.plus(innTokensToProduce).plus(bonusInnQty) <= capTokensPreIco);\n        } else {\n            require(tokensProducedIco.plus(rate.times(msg.value)) <= capTokensIco);\n        }\n        _;\n    }\n\n    /// @dev Ensure token production caps for an internal type are not exceeded\n    /// @param purpose Bucket of the token\n    modifier tokenTypeProductionNotExceeded(TokenPurpose purpose) {\n        require(purpose == TokenPurpose.Community || purpose == TokenPurpose.Company || purpose == TokenPurpose.Team);\n        if(purpose == TokenPurpose.Community) {\n            require(tokensProducedCommunity.plus(rate.times(msg.value)) <= capTokensCommunityReserve);\n        } else if (purpose == TokenPurpose.Company) {\n            require(tokensProducedCompany.plus(rate.times(msg.value)) <= capTokensCompanyReserve);\n        } else if (purpose == TokenPurpose.Team) {\n            require(tokensProducedTeam.plus(rate.times(msg.value)) <= capTokensTeam);\n        } else {\n            revert();\n        }\n        _;\n    }\n\n    /// @dev Constructor passing in production parameters\n    /// @param _bonusStartArray Array of start times for bonus levels\n    /// @param _bonusEndArray Array of end times for bonus levels\n    /// @param _bonusInnPercentArray Array of bonuses per relevant time period, in percent\n    /// @param _capConstructorArray Array to fix a Stack too Deep error\n    /// @param _closeGoalBonusArray Set of bonuses for closing out goals of various phases\n    /// @param _closingTimeArray Closing time array for closing time per phase\n    /// @param _decimals Decimals for the INN token\n    /// @param _miscConstructorArray Part of fix for Stack too Deep error\n    /// @param _name Name of the INN token\n    /// @param _openingTimeArray Opening time array for opening time per phase\n    /// @param _symbol Symbol for the INN token\n    /// @param _targetAddress Address to send produced INN tokens\n    constructor(uint256[] _bonusStartArray, uint256[] _bonusEndArray, uint8[] _bonusInnPercentArray,\n        uint32[] _capConstructorArray, uint32[] _closeGoalBonusArray, uint256[] _closingTimeArray,\n        uint8 _decimals, uint256[] _miscConstructorArray, string _name, uint256[] _openingTimeArray,\n        string _symbol, address _targetAddress) public {\n        require(_miscConstructorArray[0] > 0);  // _capWeiIco\n        require(_miscConstructorArray[1] > 0);  // _capWeiPreIco\n        require(_capConstructorArray[0] > 0);  // _capRecipient\n        require(_capConstructorArray[1] > 0);  // _capTokensIco\n        require(_capConstructorArray[2] > 0);  // _capTokensPreIco\n        require(_capConstructorArray[3] > 0);  // _capTokensCommunityReserve\n        require(_capConstructorArray[4] > 0);  // _capTokensCompanyReserve\n        require(_capConstructorArray[5] > 0);  // _capTokensTeam\n        require(_closingTimeArray[0] >= _openingTimeArray[0]);\n        require(_openingTimeArray[1] >= _closingTimeArray[0]);\n        require(_closingTimeArray[1] >= _openingTimeArray[1]);\n        require(_miscConstructorArray[2] > 0);  // _goalWeiRaiseIco\n        require(_miscConstructorArray[3] > 0);  // _goalWeiRaisePreIco\n        require(_miscConstructorArray[2].plus(_miscConstructorArray[3]) <=\n            _miscConstructorArray[0].plus(_miscConstructorArray[1]));\n        require(_miscConstructorArray[5] >= block.timestamp);  // Solium (block) _innTokenIcoReleaseDate\n        require(bytes(_name).length != 0);  // Check for string length\n        require(_openingTimeArray[0] >= block.timestamp);  // Solium not allowed (block)\n        require(_miscConstructorArray[6] > 0);  // _rate\n        require(bytes(_symbol).length != 0);  // Check for string length\n        require(_targetAddress != address(0));\n\n        bonusStartArray = _bonusStartArray;\n        bonusEndArray = _bonusEndArray;\n        bonusInnPercentArray = _bonusInnPercentArray;\n        capWeiIco = _miscConstructorArray[0];\n        capWeiPreIco = _miscConstructorArray[1];\n        capRecipient = _capConstructorArray[0];\n        capTokensIco = _capConstructorArray[1];\n        capTokensPreIco = _capConstructorArray[2];\n        capTokensCommunityReserve = _capConstructorArray[3];\n        capTokensCompanyReserve = _capConstructorArray[4];\n        capTokensTeam = _capConstructorArray[5];\n        capTokens = _capConstructorArray[1] + _capConstructorArray[2] + _capConstructorArray[3] +\n            _capConstructorArray[4] + _capConstructorArray[5];\n        closeGoalBonusArray = _closeGoalBonusArray;\n        closingTimeArray = _closingTimeArray;\n        decimals = _decimals;\n        goalWeiRaiseIco = _miscConstructorArray[2];\n        goalWeiRaisePreIco = _miscConstructorArray[3];\n        goalPreIcoBonus = _miscConstructorArray[4];\n        innTokenIcoReleaseDate = _miscConstructorArray[5];\n        name = _name;\n        openingTimeArray = _openingTimeArray;\n        rate = _miscConstructorArray[6];\n        symbol = _symbol;\n        targetAddress = _targetAddress;\n        token = _createTokenContract();\n    }\n\n    /// @dev fallback function ***DO NOT OVERRIDE*** but overridden as all ETH must be authorized\n    function () external payable {\n        revert();\n        //produceTokensDuringOpenPeriod(msg.sender);\n    }\n\n    /// @dev Method to claim release of escrow if relevant\n    function claimRefund() public {\n        require(isFinalized);\n        require(!goalReached());\n\n        escrow.refund(msg.sender);\n    }\n\n\n    /// @dev Serves to close out production after phases and internal production have been completed\n    function finish() public onlyController {\n        require(!isFinalized);\n\n        if(tokensProducedCommunity >= capTokensCommunityReserve &&\n        tokensProducedCompany >= capTokensCompanyReserve &&\n        tokensProducedTeam >= capTokensTeam &&\n        (stage == IcoStage.Ico &&\n        (tokensProducedIco >= capTokensIco ||\n        tokensProducedPreIco < goalWeiRaisePreIco))) {  // All internal production has been completed\n            _finalize();  // Go ahead and finalize\n        } else {\n            emit FinishCallFailed(tokensProducedCommunity, tokensProducedCompany, tokensProducedTeam,\n                tokensProducedIco, tokensProducedPreIco, stage);\n        }\n    }\n\n    /// @dev Checks whether funding goal was reached for a given phase\n    function goalReached() public view returns (bool) {\n        bool isReached = false;\n\n        if(stage == IcoStage.PreIco && weiRaisedPreIco >= goalWeiRaisePreIco ||\n        stage == IcoStage.Ico && weiRaisedIco >= goalWeiRaiseIco) {\n            isReached = true;\n        }\n\n        return isReached;\n    }\n\n    /// @dev Checks whether the period in which a phase is open has already elapsed.\n    /// @return Whether phase period has elapsed\n    function hasClosed() public view returns (bool) {\n        return block.timestamp > closingTimeArray[1];  // Solium disable as won't compile (block) - ICO complete\n    }\n\n    /// @dev Low-level token production ***DO NOT OVERRIDE*** but overridden to allow for specific usage\n    /// @param _innRecipient Address requesting the tokens produced\n    /// @param _v ECDSA signature parameter v\n    /// @param _r ECDSA signature parameter r\n    /// @param _s ECDSA signature parameter s\n    function produceTokensDuringOpenPeriod(address _innRecipient, uint8 _v, bytes32 _r, bytes32 _s)\n        onlyValidAccess(_v, _r, _s) isOpenPeriod tokenPhaseProductionCapNotExceeded\n        recipientNotCapped(_innRecipient) tokenPhaseHardCapNotExceeded public payable {\n        require(msg.value > 0);\n        weiRaised = weiRaised.plus(msg.value);\n\n        if(stage == IcoStage.PreIco) {\n            weiRaisedPreIco = weiRaised.plus(msg.value);\n        } else if(stage == IcoStage.Ico) {\n            weiRaisedIco = weiRaisedIco.plus(msg.value);\n        }\n\n        if((stage == IcoStage.PreIco && weiRaisedPreIco < goalWeiRaisePreIco) ||\n            (stage == IcoStage.Ico && weiRaisedIco < goalWeiRaiseIco)) {\n            uint256 tenPercent = msg.value / 10;\n            _escrowFunds(tenPercent.times(9));  // Escrows ETH funds if goal has not yet been reached\n            targetAddress.transfer(tenPercent);\n        } else {  // Go ahead and transfer ETH to proper location\n            _closeEscrowPhase();\n            targetAddress.transfer(msg.value);\n        }\n\n        new InnLockup(token, _innRecipient, innTokenIcoReleaseDate);\n        emit TokenProduction(msg.sender, _innRecipient, msg.value, innTokensToProduce);\n        _postValidateProduction(_innRecipient, msg.value);  // DEV - Has no function yet\n    }\n\n    /// @dev Allows for the internal production of tokens, as appropriate\n    /// @param purpose Tranche for the production to be run against\n    function produceTokensInternal(TokenPurpose purpose, uint256 quantity,\n        uint256 innInternalReleaseDate) public onlyController tokenTypeProductionNotExceeded(purpose) {\n        new InnLockup(token, targetAddress, innInternalReleaseDate);\n\n        if(purpose == TokenPurpose.Community) {\n            tokensProducedCommunity = tokensProducedCommunity.plus(quantity);\n        } else if (purpose == TokenPurpose.Company) {\n            tokensProducedCompany = tokensProducedCompany.plus(quantity);\n        } else if (purpose == TokenPurpose.Team) {\n            tokensProducedTeam = tokensProducedTeam.plus(quantity);\n        }\n    }\n\n    /// @dev Change the current rate; only to be used if ETH/$ drops below $300 during pre-ICO or ICO\n    function setCurrentRate(uint256 _rate) public onlyController {\n        rate = _rate;\n    }\n\n    /// @dev Allow for transition manually of stage from Pre-ICO to ICO\n    function setProductionStage(uint value) public onlyController {\n        IcoStage _stage;\n\n        if (uint(IcoStage.PreIco) == value) {\n            _stage = IcoStage.PreIco;\n        } else if (uint(IcoStage.Ico) == value) {\n            _stage = IcoStage.Ico;\n        }\n\n        stage = _stage;\n    }\n\n    /// @dev Calculate pre-ICO bonus for token production\n    function _calculateBonus() internal view arraysHaveEqualLength returns (uint256) {\n        uint256 arrLen = bonusStartArray.length;\n\n        for(uint8 x = 0; x < arrLen; ++x) {\n            if(bonusEndArray[x] > block.timestamp && bonusStartArray[x] <= block.timestamp) {\n                return bonusInnPercentArray[x];\n            }\n        }\n    }\n\n    /// @dev Close out an escrow phase as goal has been hit\n    function _closeEscrowPhase() internal {\n        escrow.close();\n    }\n\n    /// @dev Automatically called when this contract deployed\n    /// @return TokenBaseInn\n    function _createTokenContract() internal returns (TokenBaseInn) {\n        return new TokenBaseInn(name, symbol, decimals);\n    }\n\n    /// @dev Place produced tokens into escrow pending lockout end\n    function _escrowFunds(uint256 amount) internal {\n        targetAddress.transfer(amount);\n        escrow.deposit.value(amount)(msg.sender);\n    }\n\n    /// @dev Must be called after production ends, to do extra work through finalization function\n    function _finalize() internal {\n        require(!isFinalized);\n        require(hasClosed());\n        emit Finalized();\n\n        isFinalized = true;\n    }\n\n    /// @dev Override to extend the way in which ether is converted to tokens.\n    /// @param _weiAmount Value in wei to be converted into tokens\n    /// @return Number of tokens that can be produced with the specified _weiAmount\n    function _getTokenAmount(uint256 _weiAmount) internal view returns (uint256) {\n        return _weiAmount.times(rate);\n    }\n\n    /// @dev Validation of produced tokens. Observe state and use revert statements when valid conditions are not met.\n    /// @param _innRecipient Address requesting the tokens produced\n    /// @param _weiAmount Value in wei involved in the production\n    function _postValidateProduction(address _innRecipient, uint256 _weiAmount) internal {\n        emit Produced(_innRecipient, _weiAmount);\n    }\n}",
  "sourcePath": "/Users/mbpJames/WebstormProjects/IcoTest2/contracts/InnTokenProduce.sol",
  "compiler": {
    "name": "solc",
    "version": "0.4.24+commit.e67f0147.Emscripten.clang"
  },
  "schemaVersion": "2.0.0",
  "updatedAt": "2018-06-24T13:48:05.422Z"
}